:020000040800F2
:10000000B805002045010008A7500008E5100008C9
:10001000A550000863060008855B0008000000008A
:10002000000000000000000000000000C3570008AE
:10003000650600080000000081540008B55800085B
:100040005F0100085F0100085F0100085F01000810
:100050005F0100085F0100085F0100085F01000800
:100060005F0100085F0100085F0100085F010008F0
:100070005F0100085F0100085F0100085F010008E0
:100080005F0100085F0100085F0100085F010008D0
:100090005F0100085F0100085F010008A906000871
:1000A0005F0100085F0100085F0100085F010008B0
:1000B0005F0100085F0100085F0100085F010008A0
:1000C0005F0100085F0100085F0100085F01000890
:1000D0005F010008095900085F0100085F0100087E
:1000E0005F0100085F0100085F0100085F01000870
:1000F0005F0100085F0100085F0100085F01000860
:100100005F0100085F0100085F0100085F0100084F
:100110005F0100085F0100085F0100085F0100083F
:100120005F0100085F0100085F0100085F0100082F
:10013000DFF80CD000F074FA00480047CD6C0008DE
:10014000B80500200648804706480047FEE7FEE75E
:10015000FEE7FEE7FEE7FEE7FEE7FEE7FEE7FEE777
:10016000B958000831010008F0B480EA0102D40F48
:100170004200B2EB410F02D20246084611464A0045
:1001800042D0C30DDDB2C1F3C752AD1A202D35DA0E
:10019000C1F3160141F4000204B15242C5F1200638
:1001A00002FA06F12A411044B3EBD05F23D0C4B168
:1001B000012DA0EBC35009DCF0BC4FF0004202EA75
:1001C000C352DBB200F5000000F09FB9400000F11F
:1001D000807000EBC350A0F1807040EAD1704900FC
:1001E00009E0490841EAC071A0EBC35000F50000E6
:1001F000400800EBC350F0BC00F07EB96142012220
:1002000002EB4101001BF6E7F0BC704781F00041B2
:10021000AAE780F00040A7E780EA010210B502F0EB
:100220000043400022D04A001FD0010E01EB1261B2
:10023000C0F35600C2F3560240F4000042F400023C
:10024000A0FB022000047F39140400D0401C50EAB7
:10025000124001D44000491EC2B20C0604EBD0107B
:10026000401C4008802A02D003E0002010BD20F08E
:100270000100002900DA0020184310BD30B480EAE4
:10028000010202F0004530F0004221F0004013D09E
:1002900090B1C30DD40DC2F31601C0F31600E41AD9
:1002A00041F4000140F400027D34914201D3641C0A
:1002B00000E04900002C02DA30BC002070474FF407
:1002C00000000023914201D3891A034340084FEAFA
:1002D0004101F7D151B1914202D14FF0004105E007
:1002E00002D24FF0010101E06FF0010103EBC450B5
:1002F000284430BC00F000B9420005D0C0F3C7521A
:100300005242914201DC0020704700EBC15070471F
:100310002DE9FE4F81EA030404F0004421F000417E
:1003200000944FF0000B23F0004350EA01045ED02C
:1003300052EA03045BD0C3F30A54C1F30A552C44B8
:10034000A4F2F3340194A0FB0254C1F3130141F46D
:100350008011C3F3130343F4801301FB024400FB39
:10036000034E840A970A44EA815447EA8357A4FB60
:10037000076802958D0A05FB07854FEA932C04FB5D
:100380000C542705029D4FEA065847EA1637B5EB8D
:1003900008056EEB070C870E920E47EA811742EABA
:1003A0008312A7FB0201B6EB0B0164EB00042B0DDB
:1003B00043EA0C335E1844EB1C50DA465146E7FB27
:1003C0000201C5F313044FEA0B3343EA14534FEA17
:1003D0000432019C43EA0603A4F10C040294009C3D
:1003E000CDE900B400F0CEF803B0BDE8F08F0020F6
:1003F0000146F9E7C10F80EAE0700844CA07962376
:10040000002100F082B80EB540F233410291002184
:10041000CDE900110A460B4600F0B4F803B000BD68
:1004200000F0004220F00040C10DC0F3160040F47F
:1004300000007F2901DA00207047962903DCC1F112
:100440009601C84001E096398840002AF4D0404225
:100450007047C1F30A5210B5C1F3130140F2FF33E4
:1004600041F480119A4201DA002010BD40F233437A
:100470009A42A2F2334203DC524200F02DF810BD42
:10048000904010BD002801DBC0F10040002901DBD5
:10049000C1F1004181427047002801DBC0F10040FA
:1004A000002901DBC1F100418842704730B50B469D
:1004B000014600202022012409E021FA02F59D4294
:1004C00005D303FA02F5491B04FA02F52844151E68
:1004D000A2F10102F1DC30BD202A04DB203A21FA2E
:1004E00002F00021704721FA02F3D040C2F120024D
:1004F00091400843194670470029A8BF7047401C27
:10050000490008BF20F00100704710B4B0FA80FC29
:1005100000FA0CF050EA010404BF10BC704749B166
:10052000CCF1200421FA04F411FA0CF118BF0121D6
:1005300021430843A3EB0C01CB1D4FEA00614FEAB6
:10054000102042BF002010BC704700EBC350104485
:100550000029A4BF10BC7047401C490008BF20F010
:10056000010010BC704710B5141E73F1000408DAC6
:10057000401C41F1000192185B411A4301D120F067
:10058000010010BD2DE9F04D92469B4611B1B1FA24
:1005900081F202E0B0FA80F22032904600F052F888
:1005A00004460F4640EA0A0041EA0B0153465A4608
:1005B000084313D0114653EA010019D0C8F1400294
:1005C0005046FFF789FF05460E46504659464246BB
:1005D00000F038F8084305D0012004E020463946F1
:1005E000BDE8F08D0020054346EAE0762C43374312
:1005F0000A986305E40AA0EB08000022FD0A44EA19
:1006000047540A3002D500200146E9E701051019D8
:100610006941DDE9084500196941BDE8F04DA2E7EF
:10062000064C074D06E0E06840F0010394E807003F
:1006300098471034AC42F6D3FFF77EFDB48700082C
:10064000D4870008202A04DB203A00FA02F10020B7
:1006500070479140C2F1200320FA03F31943904000
:100660007047FEE770473EB50821002000F0B8FA59
:100670004FF48070019000248DF8084008208DF818
:10068000090001258DF80A5001A800F0A5F81720EF
:100690008DF800008DF801408DF802408DF8035070
:1006A000684604F001FD3EBD70B54FF480742046ED
:1006B00000F03CF8012813D10C4A0D4D00231178AD
:1006C00011B1012908D00BE00A4803600121117023
:1006D000C5F88C11016003E0C5F88C310220107060
:1006E0002046BDE8704000F007B800008C000020F4
:1006F000008021429881224210B50446200D00D18D
:100700001CB9FC2102A005F03BFB0748046010BDAA
:100710007372635C73746D3332663130785F657801
:1007200074692E63000000001404014070B5044693
:100730000025012C35D0022C33D0042C31D0082CCC
:100740002FD0102C2DD0202C2BD0402C29D0802C19
:1007500027D0B4F5807F24D0B4F5007F21D0B4F544
:10076000806F1ED0B4F5006F1BD0B4F5805F18D039
:10077000B4F5005F15D0B4F5804F12D0B4F5004F3A
:100780000FD0B4F5803F0CD0B4F5003F09D0B4F5DC
:10079000802F06D0B4F5002F03D0E52107A005F087
:1007A000EFFA0C48006820400A49143109682142D8
:1007B00001D000B10125284670BD00007372635C52
:1007C00073746D3332663130785F657874692E6387
:1007D000000000000004014070B5044620790028A4
:1007E00005D0042803D06A2129A005F0C9FA607950
:1007F000082807D00C2805D0102803D06B2124A08E
:1008000005F0BEFA2068010D00D118B96C2120A0B6
:1008100005F0B6FAA07928B1012803D06D211CA0FB
:1008200005F0AEFA2049A07958B3086822689043D1
:100830000860081D026823689A4302602079084412
:10084000026823681A430260174A08321068236856
:1008500098431060131D18682568A84318606079D4
:10086000102805D00844016822681143016070BD5A
:1008700010682168084310601868216808431860F0
:1008800070BD20790844016822689143016070BD01
:100890007372635C73746D3332663130785F657880
:1008A00074692E63000000000004014070B5044626
:1008B0000D46002C0AD0022C08D0042C06D0062CA1
:1008C00004D040F2DD110CA005F05AFA35B1012D2B
:1008D00004D04FF4EF7108A005F052FAA000A0F187
:1008E000C04025B1016841F00101016070BD01689F
:1008F000074A1140016070BD7372635C73746D339D
:1009000032663130785F66736D632E6300000000DD
:10091000FEFF0F002DE9F04104462068002809D0B1
:10092000022807D0042805D0062803D0B321A6A0AA
:1009300005F026FA606828B1022803D0B421A2A0ED
:1009400005F01EFAA06838B1042805D0082803D0A5
:10095000B5219DA005F014FAE06828B1102803D055
:10096000B62199A005F00CFA206930B1B0F5807F6E
:1009700003D0B72194A005F003FA606930B1B0F557
:10098000004F03D0B82190A005F0FAF9A06930B16A
:10099000B0F5007F03D0B9218BA005F0F1F9E06933
:1009A00030B1B0F5806F03D0BA2187A005F0E8F927
:1009B000206A30B1B0F5006F03D0BB2182A005F0F2
:1009C000DFF9606A30B1B0F5805F03D0BC217EA052
:1009D00005F0D6F9A06A30B1B0F5005F03D0BD21B3
:1009E00079A005F0CDF9E06A4FF4804828B1404580
:1009F00003D0BE2174A005F0C3F9206B30B1B0F56F
:100A0000002F03D0BF2170A005F0BAF9606B006819
:100A10000F2803D9C0216CA005F0B2F9606B4068C3
:100A20000F2803D9C12168A005F0AAF9606B80687E
:100A3000401EFE2803D9C22163A005F0A1F9606B16
:100A4000C0680F2803D9C3215FA005F099F9606B36
:100A500000690F2803D9C4215BA005F091F9606BF0
:100A600040690F2803D9C52157A005F089F9606BAB
:100A70004FF080556E0080694FF0405748B1A84252
:100A800007D0B04205D0B84203D0C6214EA005F031
:100A900077F9D4E901010843D4E90312114308436B
:100AA00061690843A1690843E1690843216A084371
:100AB000616A0843A16A0843E16A0843216B08435D
:100AC00021688900A1F1C0410860A068082807D109
:100AD00020688000A0F1C040016841F04001016041
:100AE000606BD0E9001241EA021182688389120228
:100AF00042EA03421143028A41EA0251027D8069BF
:100B000041EA026101432068401C8000A0F1C0401E
:100B10000160E06A40454DD1A06B00680F2803D901
:100B2000EA2129A005F02CF9A06B40680F2803D911
:100B3000EB2125A005F024F9A06B8068401EFE285B
:100B400003D9EC2120A005F01BF9A06B00690F2848
:100B500003D9ED211CA005F013F9A06B40690F2803
:100B600003D9EE2118A005F00BF9A06B806948B1FC
:100B7000A84207D0B04205D0B84203D0EF2112A05E
:100B800005F0FEF8A06BD0E9001241EA021182687C
:100B9000038A120242EA03521143027D806941EA4C
:100BA0000261014320688000A0F1C040C0F8041138
:100BB000BDE8F08120686FF070418000A0F1C04076
:100BC000C0F80411F4E700007372635C73746D3352
:100BD00032663130785F66736D632E63000000000B
:100BE00070B505460C46002D10D0012D0ED0022DFB
:100BF0000CD0032D0AD0042D08D0052D06D0062DCB
:100C000004D040F265211BA005F0BAF814B3012C02
:100C100020D0022C1ED0032C1CD0042C1AD0052C62
:100C200018D0062C16D0072C14D0082C12D0092C62
:100C300010D00A2C0ED00B2C0CD00C2C0AD00D2C62
:100C400008D00E2C06D00F2C04D040F2662109A04B
:100C500005F096F8A007010F0F228A400B4824F0F8
:100C60000303184483689343836082688D402A435A
:100C7000826070BD7372635C73746D333266313041
:100C8000785F6770696F2E6300000000000001400C
:100C90002DE9F04104460D4600264748844215D010
:100CA0004648844212D0464884420FD04548844288
:100CB0000CD04548844209D04448844206D0444878
:100CC000844203D0B22143A005F05AF8E87888B1F5
:100CD00004280FD028280DD048280BD0142809D07C
:100CE000102807D01C2805D0182803D0B32139A01C
:100CF00005F046F8288818B9B42136A005F040F868
:100D0000E87800F00F07C0060CD5A878012807D0B6
:100D1000022805D0032803D0BB212EA005F030F80F
:100D2000A878074328784FF00F0310F0FF0F4FF01B
:100D3000010C1CD020680CFA06F12A880A408A426D
:100D400011D1B20003FA02F820EA080007FA02F80B
:100D500048EA0000EA78282A02D0482A02D002E0B5
:100D6000616100E02161761C082EE4D320602888B0
:100D7000FF281ED96268002000F108060CFA06F16F
:100D80002E880E408E4210D1860003FA06F822EA21
:100D9000080207FA06F848EA0202EE78282E00D187
:100DA0006161EE78482E00D12161401C0828E3D310
:100DB0006260BDE8F081000000080140000C0140C5
:100DC000001001400014014000180140001C0140C7
:100DD000002001407372635C73746D33326631308E
:100DE000785F6770696F2E63000000002DE9F041A5
:100DF00004460E46012C7DD0022C7BD0042C79D0E9
:100E0000082C77D0A4F5A010103873D0A4F5A0104A
:100E100030386FD0A4F5B01040386BD0A4F5B010C6
:100E2000C0387DD0584884427AD05848844277D020
:100E30005748844274D05748844271D056488442FF
:100E40006ED0B4F5805F6BD0B4F5EA1F68D0B4F50E
:100E5000EB1F65D0B4F5004F62D06FF40010C442B0
:100E60005ED0A4F50010801E5AD0A4F50010001F1B
:100E700056D0A4F50010083852D0A4F50010103850
:100E80004ED0B4F1201F4BD0A4F50010403847D00D
:100E90004248844244D04248844241D0414884423E
:100EA0003ED0414884423BD04048844238D0B4F5DB
:100EB000011F35D06FF00040C44231D0C01C8442C5
:100EC0002ED0801C84422BD0001D844228D038486C
:100ED000844225D036481030844221D03448303006
:100EE00084421DD032487030844219D03048F030EE
:100EF000844200E014E013D02E48844210D02E48E3
:100F000084420DD02D4884420AD02D48844207D017
:100F10002C48844204D040F22A212BA004F030FF58
:100F200036B1012E04D040F22B2127A004F028FF77
:100F30002B4B002C01DADA6900E05A68C4F3034154
:100F4000600D0001A5B2C4F301578540032F07D0FF
:100F5000E0020CD503208840824342F0706009E033
:100F600022F07060596821F07061596002E0AA4374
:100F700042F0706006B12843002C02DAD861BDE867
:100F8000F0815860FBE70000000118000002180023
:100F90000003180000081A00000C1A0000013000BD
:100FA000000230000004300000112000002020006A
:100FB0001000008000020080000400800008008013
:100FC00000100080002000807372635C73746D33C6
:100FD00032663130785F6770696F2E630000000001
:100FE0000000014070B504460D461148844216D0F9
:100FF0001048844213D01048844210D00F488442D5
:101000000DD00F4884420AD00E48844207D00E48C3
:10101000844204D040F279110CA004F0B1FE25B94D
:101020004FF4BD7109A004F0ABFE656170BD000016
:1010300000080140000C0140001001400014014074
:1010400000180140001C0140002001407372635CE5
:1010500073746D3332663130785F6770696F2E63F9
:101060000000000070B504460D461148844216D0B9
:101070001048844213D01048844210D00F48844254
:101080000DD00F4884420AD00E48844207D00E4843
:10109000844204D040F269110CA004F071FE25B91D
:1010A0004FF4B57109A004F06BFE256170BD00001E
:1010B00000080140000C01400010014000140140F4
:1010C00000180140001C0140002001407372635C65
:1010D00073746D3332663130785F6770696F2E6379
:1010E00000000000FEE700002DE9F0430646002462
:1010F000174F38887D884543B888A0F5D04104391A
:1011000002D1B879012807D00021084603F05AFE21
:1011100003F0B6FF0F4916E00020B8714FF02A091E
:10112000A7F80A904FF02B08A7F80C80002108467A
:1011300003F048FE0120B871A7F80A80A7F80C90C8
:10114000E6E70E80641CAC42FBD3BDE8F0830000F0
:10115000A60100200008006C2DE9F04F4D492A231C
:101160002B24898845F2105C4FF430584FF42859ED
:101170004FF448754FF0F00A49F2413B4FF4A07725
:1011800045F210364FF4F072002810D041484FF06D
:10119000010E80F806E00780A0F802A0594501D0B2
:1011A000B14240D12C250581438184815CE03948DE
:1011B0004FF0000E80F806E0A0F800A047805945E7
:1011C00006D0A1F5D04ABAF1040A01D0B1420CD13F
:1011D0002C25058143818481A1F5D043043B01D0B6
:1011E000B14249D10780428046E0614509D1A0F86B
:1011F0000880A0F80A904FF42C518181028045802C
:101200003AE0A1F5C856633E06D022210181202193
:101210004181212181812FE02C2101814481838121
:101220000280458028E0A1F5D04ABAF1040A0BD02B
:1012300061450ED1A0F80880A0F80A904FF42C5315
:101240008381058042800FE02C25058144818381C4
:101250000AE0A1F5C85CBCF1630C12D02223038123
:101260002123438120238381A1F5D043043B01D076
:10127000B14201D102804780BDE8F04F002003F069
:1012800095BC4FF02C0CA0F808C0438184810580E8
:101290004280E9E7A601002000B503F093FD03F0CA
:1012A000EFFE024802490088088000BD8E00002041
:1012B0000008006C2DE9FC4F0746884600241546BF
:1012C0000320A0EB42064BE0A8EB050081B207EB40
:1012D000040A01901FFA8AF0FFF7DEFFA8EB040072
:1012E00081B207EB050900901FFA89F0FFF7D4FFE0
:1012F00008EB040B1FFA8BF11FFA89F0FFF7CCFF04
:1013000008EB05091FFA89F11FFA8AF0FFF7C4FFFD
:101310001FFA89F1A7EB04091FFA89F0FFF7BCFF58
:10132000A7EB050A1FFA8BF11FFA8AF0FFF7B4FF4B
:10133000019881B21FFA89F0FFF7AEFF009881B2E1
:101340001FFA8AF0FFF7A8FF641C002E03DA06EBF1
:101350008406B61D04E0601B06EB80060A366D1E8F
:10136000AC42B1DDBDE8FC8F2DE9F04103460C46EF
:1013700090464C4F220A3846B9881D0A4089A1F58B
:101380001346413E19D0A1F5A646103E15D0A1F551
:10139000AA46103E23D03D46A1F5C85CAE792D8803
:1013A000ED1A6D1EBCF1630C35D0A1F5D04CBCF12B
:1013B000040C51D0012E64D064E003F05BFE28469B
:1013C00003F052FED8B203F04FFEB88903F052FE8C
:1013D000104603F049FEE0B203F046FE59E003F088
:1013E00049FE284603F040FE7889401C80B203F095
:1013F00041FED8B203F038FEB88903F03BFE104638
:1014000003F032FEB889401C80B203F033FEE0B234
:1014100003F02AFE3DE006B9ABB203F02BFE1D0A35
:10142000284603F021FED8B203F01EFE284603F042
:101430001BFED8B203F018FEB88903F01BFE10465D
:1014400003F012FEE0B203F00FFE104603F00CFEB4
:10145000E0B203F009FE1CE0012E00D1ABB203F0B4
:1014600009FE180A03F000FED8B203F0FDFDB889AA
:1014700003F000FE104603F0F7FDE0B203F0F4FDC8
:1014800007E0ABB2194603F005FEB889214603F028
:1014900001FE054938890880881CA0F80080BDE855
:1014A000F0810000A6010020FE07006C2DE9F84342
:1014B0008146089E98461F4DA888A0F5D043043B5E
:1014C00002D1A879012806D0A2EB0900401C87B2FE
:1014D0000C46194D2BE00C462888811A491E89B20A
:1014E0004246A0EB0900401E83B20020A8712A27C3
:1014F0006F814FF02B08A5F80C8020460096FFF76F
:10150000D5FF0120A871A5F80A80AF81BDE8F88356
:101510002146484603F056FC03F0B2FD002002E0ED
:101520002E80401C80B2B842FAD3641CA4B2444559
:10153000EED9EBE7A60100200008006C2DE9F04F82
:101540009FB001210C02204603F09CFF01214FF4C3
:10155000B47003F0C3FF0325ADF878504FF01008C6
:101560008DF87B808DF87A50DFF814941EA94846D8
:10157000FFF78EFB4CF23370ADF8780018268DF82B
:101580007B608DF87A501EA9FE48FFF781FB4FF66D
:101590008070ADF878008DF87B608DF87A501EA9C8
:1015A000F948FFF775FB41F20100ADF878008DF8BE
:1015B0007B608DF87A501EA9F448FFF769FB01277C
:1015C0000897002009900A970B900C900D900E90B0
:1015D00001900290039704900590069007900621D1
:1015E0000F9110901190CDF84880139015901490A1
:1015F0001690179021011891199089001A911B904B
:1016000008A81C9001A81D900FA8FFF783F90121DD
:101610000620FFF74BF902214846FFF7E3FC322092
:1016200005F016FB02214846FFF71CFD322005F0AD
:101630000FFB002003F08AFAD54A908049F2413826
:1016400046F6040945F2103A45F210554FF6FF767A
:10165000FF2804D3B04202D0B0F5134F78D1D32085
:1016600003F008FD03F068FA908003F065FA9080BB
:1016700003F062FA06EA0020908003F05DFA918898
:1016800008439080404563D0BF2003F0F3FC03F093
:1016900053FA908003F050FA908003F04DFA908056
:1016A00003F04AFA06EA0020908003F045FA918898
:1016B0000843908048454BD0D42003F0DBFC03F076
:1016C0003BFA908003F038FA908003F035FA06EA8E
:1016D0000020908003F030FA9188084390805045B4
:1016E00036D04FF45A4003F0C5FC03F025FA908041
:1016F0004FF45B4003F0BEFC03F01EFA06EA002044
:1017000090804FF45C4003F0B5FC03F015FA91882B
:1017100008439080B0F5004F00D195809088A84292
:1017200016D0A12003F0A6FC03F006FA908003F087
:1017300003FA06EA0020908003F0FEF9918808433E
:101740009080A0F5AE41613902D141F663109080DE
:10175000908840457ED1CF2003F08CFC002003F020
:1017600083FCC12003F080FC302003F07DFCED20E1
:1017700003F080FC642003F077FC032003F074FC8A
:10178000122003F071FC812003F06EFCE82003F0CE
:1017900071FC852003F068FC102003F065FC7A20C2
:1017A00003F062FCCB2003F065FC392003F05CFC05
:1017B0002C2003F059FC002003F056FC342003F0E9
:1017C00053FC022003F050FCF72003F053FC2020D0
:1017D00003F04AFCEA2003F04DFC002003F044FC37
:1017E000002003F041FCC02003F044FC1B2003F068
:1017F0003BFCC12003F03EFC012003F035FCC5207A
:1018000003F038FC302003F02FFC302003F02CFCD8
:10181000C72003F02FFCB72003F026FC362003F08E
:1018200029FC482003F020FC3A2003F023FC55203B
:1018300003F01AFCB12003F01DFC002003F014FC9F
:101840001A2003F011FCB62003F014FC0A2003F068
:101850000BFC00E0A2E0A22003F006FCF22003F063
:1018600009FC002003F000FC262003F003FC01200B
:1018700003F0FAFBE02003F0FDFB0F2003F0F4FB84
:101880002A2003F0F1FB282003F0EEFB082003F0F0
:10189000EBFB0E2003F0E8FB082003F0E5FB5420EF
:1018A00003F0E2FBA92003F0DFFB432003F0DCFBA5
:1018B0000A2003F0D9FB0F2003F0D6FB002003F031
:1018C000D3FB002003F0D0FB002003F0CDFB002071
:1018D00003F0CAFBE12003F0CDFB002003F0C4FBC2
:1018E000152003F0C1FB172003F0BEFB072003F017
:1018F000BBFB112003F0B8FB062003F0B5FB2B2047
:1019000003F0B2FB562003F0AFFB3C2003F0ACFB2E
:10191000052003F0A9FB102003F0A6FB0F2003F025
:10192000A3FB3F2003F0A0FB3F2003F09DFB0F2013
:1019300003F09AFB2B2003F09DFB002003F094FBA7
:10194000002003F091FB012003F08EFB3F2003F009
:101950008BFB2A2003F08EFB002003F085FB002088
:1019600003F082FB002003F07FFBEF2003F07CFB01
:10197000112003F07FFB782005F06AF9292009E0A7
:10198000000C0140001401400018014000200140FB
:10199000A601002003F06EFB03F0C1B848457CD1DE
:1019A000112003F067FB142005F052F9D02003F05A
:1019B00061FB072003F058FB422003F055FB1D207C
:1019C00003F052FBD12003F055FB002003F04CFB49
:1019D0001A2003F049FB092003F046FBD22003F054
:1019E00049FB012003F040FB222003F03DFBC02017
:1019F00003F040FB102003F037FB3B2003F034FBE7
:101A0000002003F031FB022003F02EFB112003F035
:101A10002BFBC52003F02EFB032003F025FBC82081
:101A200003F028FB002003F01FFB252003F01CFB24
:101A3000212003F019FB052003F016FB002003F022
:101A400013FB0A2003F010FB652003F00DFB25209B
:101A500003F00AFB772003F007FB502003F004FBA0
:101A60000F2003F001FB002003F0FEFAF82003F042
:101A700001FB012003F0F8FAFE2003F0FBFA00203E
:101A800003F0F2FA022003F0EFFA202003F0F2FA5A
:101A9000362003F0EFFA082000E02CE003F0E4FA2F
:101AA0003A2003F0E7FA552003F0DEFA2B2003F08A
:101AB000E1FA002003F0D8FA002003F0D5FA012063
:101AC00003F0D2FA3F2003F0CFFA2A2003F0D2FA33
:101AD000002003F0C9FA002003F0C6FA012003F049
:101AE000C3FADF2003F0C0FA782005F0B1F829200E
:101AF00003F0C0FA50E750457ED1ED2003F0BAFA6A
:101B0000012003F0B1FAFE2003F0AEFAEE2003F05C
:101B1000B1FADE2003F0A8FA212003F0A5FAF120A3
:101B200003F0A8FA012003F09FFADF2003F0A2FAE5
:101B3000102003F099FAC42003F09CFA8F2003F0E0
:101B400093FAC62003F096FA002003F08DFAE22003
:101B500003F08AFAE22003F087FAE22003F084FA25
:101B6000BF2003F087FAAA2003F07EFAB02003F02A
:101B700081FA0D2003F078FA002003F075FA0D20A9
:101B800003F072FA002003F06FFA112003F06CFAF0
:101B9000002003F069FA192003F066FA002003F030
:101BA00063FA212003F060FA002003F05DFA2D2093
:101BB00003F05AFA002003F057FA3D2003F054FADC
:101BC000002003F051FA5D2003F04EFA002003F0EC
:101BD0004BFA5D2003F048FA002003F045FAB120EB
:101BE00003F048FA802003F03FFA002003F03CFAAB
:101BF0008B2003F039FA00E0FDE3002003F034FA13
:101C0000962003F031FA002003F02EFAB22003F000
:101C100031FA002003F028FA002003F025FA022010
:101C200003F022FA002003F01FFA032003F01CFA4D
:101C3000002003F019FAB32003F01CFA002003F08F
:101C400013FA002003F010FA002003F00DFA002030
:101C500003F00AFA002003F007FA002003F004FA68
:101C6000002003F001FA002003F0FEF9002003F049
:101C7000FBF9002003F0F8F9002003F0F5F900204B
:101C800003F0F2F9002003F0EFF9002003F0ECF983
:101C9000002003F0E9F9002003F0E6F9002003F04A
:101CA000E3F9002003F0E0F9002003F0DDF9002063
:101CB00003F0DAF9002003F0D7F9002003F0D4F99B
:101CC000002003F0D1F9002003F0CEF9B42003F096
:101CD000D1F98B2003F0C8F9002003F0C5F9962054
:101CE00003F0C2F9002003F0BFF9A12003F0BCF912
:101CF000002003F0B9F9B52003F0BCF9022003F08D
:101D0000B3F9002003F0B0F9032003F0ADF900208F
:101D100003F0AAF9042003F0A7F9002003F0A4F9C6
:101D2000B62003F0A7F9002003F09EF9002003F08D
:101D30009BF9B72003F09EF9002003F095F90020ED
:101D400003F092F93F2003F08FF9002003F08CF9A3
:101D50005E2003F089F9002003F086F9642003F087
:101D600083F9002003F080F98C2003F07DF9002036
:101D700003F07AF9AC2003F077F9002003F074F94E
:101D8000DC2003F071F9002003F06EF9702003F0FD
:101D90006BF9002003F068F9902003F065F900204A
:101DA00003F062F9EB2003F05FF9002003F05CF927
:101DB000DC2003F059F9002003F056F9B82003F0B5
:101DC00059F9002003F050F9002003F04DF90020EC
:101DD00003F04AF9002003F047F9002003F044F92A
:101DE000002003F041F9002003F03EF9002003F049
:101DF0003BF9BA2003F03EF9242003F035F9002026
:101E000003F032F9002003F02FF9002003F02CF941
:101E1000C12003F02FF9202003F026F9002003F061
:101E200023F9542003F020F9002003F01DF9FF20CE
:101E300003F01AF9002003F017F9C22003F01AF991
:101E40000A2003F011F9002003F00EF9042003F03A
:101E50000BF9002003F008F9C32003F00BF93C2034
:101E600003F002F9002003F0FFF83A2003F0FCF839
:101E7000002003F0F9F8392003F0F6F8002003F011
:101E8000F3F8372003F0F0F8002003F0EDF83C20E1
:101E900003F0EAF8002003F0E7F8362003F0E4F856
:101EA000002003F0E1F8322003F0DEF8002003F018
:101EB000DBF82F2003F0D8F8002003F0D5F82C2011
:101EC00003F0D2F8002003F0CFF8292003F0CCF87B
:101ED000002003F0C9F8262003F0C6F8002003F024
:101EE000C3F8242003F0C0F8002003F0BDF824203C
:101EF00003F0BAF8002003F0B7F8232003F0B4F899
:101F0000002003F0B1F83C2003F0AEF8002003F00D
:101F1000ABF8362003F0A8F8002003F0A5F8322033
:101F200003F0A2F8002003F09FF82F2003F09CF8A4
:101F3000002003F099F82C2003F096F8002003F01D
:101F400093F8292003F090F8002003F08DF8262064
:101F500003F08AF8002003F087F8242003F084F8C7
:101F6000002003F081F8242003F07EF8002003F025
:101F70007BF8232003F078F8002003F075F8C420E4
:101F800003F078F8622003F06FF8002003F06CF89B
:101F9000052003F069F8002003F066F8842003F0C0
:101FA00063F8002003F060F8F02003F05DF80020F3
:101FB00003F05AF8182003F057F8002003F054F803
:101FC000A42003F051F8002003F04EF8182003F08D
:101FD0004BF8002003F048F8502003F045F80020AB
:101FE00003F042F80C2003F03FF8002003F03CF827
:101FF000172003F039F8002003F036F8952003F09D
:1020000033F8002003F030F8F32003F02DF800201F
:1020100003F02AF8E62003F027F8002003F024F864
:10202000C52003F027F8322003F01EF8002003F04B
:102030001BF8442003F018F8002003F015F8652081
:1020400003F012F8002003F00FF8762003F00CF8EC
:10205000002003F009F8882003F006F8002003F0C0
:1020600003F8C62003F006F8202002F0FDFF002050
:1020700002F0FAFF172002F0F7FF002002F0F4FF51
:10208000012002F0F1FF002002F0EEFFC72002F075
:10209000F1FF002002F0E8FF002002F0E5FF002041
:1020A00002F0E2FF002002F0DFFFC82002F0E2FFB2
:1020B000002002F0D9FF002002F0D6FF002002F03D
:1020C000D3FF002002F0D0FFC92002F0D3FF002090
:1020D00002F0CAFF002002F0C7FF002002F0C4FF98
:1020E000002002F0C1FF002002F0BEFF002002F03D
:1020F000BBFF002002F0B8FF002002F0B5FF002077
:1021000002F0B2FF002002F0AFFF002002F0ACFFAF
:10211000002002F0A9FF002002F0A6FF002002F03C
:10212000A3FF002002F0A0FF002002F09DFFE020AE
:1021300002F0A0FF162002F097FF002002F094FFAB
:102140001C2002F091FF002002F08EFF212002F0FF
:102150008BFF002002F088FF362002F085FF002070
:1021600002F082FF462002F07FFF002002F07CFF99
:10217000522002F079FF002002F076FF642002F086
:1021800073FF002002F070FF7A2002F06DFF002044
:1021900002F06AFF8B2002F067FF002002F064FF6C
:1021A000992002F061FF002002F05EFFA82002F0FB
:1021B0005BFF002002F058FFB92002F055FF00201D
:1021C00002F052FFC42002F04FFF002002F04CFF4B
:1021D000CA2002F049FF002002F046FFD22002F0A0
:1021E00043FF002002F040FFD92002F03DFF002015
:1021F00002F03AFFE02002F037FF002002F034FF47
:10220000F32002F031FF002002F02EFFE12002F067
:1022100031FF162002F028FF002002F025FF1C20CD
:1022200002F022FF002002F01FFF222002F01CFF1C
:10223000002002F019FF362002F016FF002002F005
:1022400013FF452002F010FF002002F00DFF522086
:1022500002F00AFF002002F007FF642002F004FFF2
:10226000002002F001FF7A2002F0FEFE002002F0C2
:10227000FBFE8B2002F0F8FE002002F0F5FE992014
:1022800002F0F2FE002002F0EFFEA82002F0ECFEC9
:10229000002002F0E9FEB92002F0E6FE002002F084
:1022A000E3FEC42002F0E0FE002002F0DDFECA20C2
:1022B00002F0DAFE002002F0D7FED22002F0D4FEB7
:1022C000002002F0D1FED82002F0CEFE002002F065
:1022D000CBFEE02002F0C8FE002002F0C5FEF32095
:1022E00002F0C2FE002002F0BFFEE22002F0C2FEB9
:1022F000052002F0B9FE002002F0B6FE0B2002F02D
:10230000B3FE002002F0B0FE1B2002F0ADFE002064
:1023100002F0AAFE342002F0A7FE002002F0A4FE84
:10232000442002F0A1FE002002F09EFE4F2002F0A9
:102330009BFE002002F098FE612002F095FE002036
:1023400002F092FE792002F08FFE002002F08CFE57
:10235000882002F089FE002002F086FE972002F01D
:1023600083FE002002F080FEA62002F07DFE002009
:1023700002F07AFEB72002F077FE002002F074FE31
:10238000C22002F071FE002002F06EFEC72002F0B3
:102390006BFE002002F068FED12002F065FE0020F6
:1023A00002F062FED62002F05FFE002002F05CFE2A
:1023B000DD2002F059FE002002F056FEF32002F06C
:1023C00053FE002002F050FEE32002F053FE0520F1
:1023D00002F04AFE002002F047FE0A2002F044FE0E
:1023E000002002F041FE1C2002F03EFE002002F020
:1023F0003BFE332000E0FDE202F036FE002002F05A
:1024000033FE442002F030FE002002F02DFE50206A
:1024100002F02AFE002002F027FE622002F024FED5
:10242000002002F021FE782002F01EFE002002F0C3
:102430001BFE882002F018FE002002F015FE9720F7
:1024400002F012FE002002F00FFEA62002F00CFEA9
:10245000002002F009FEB72002F006FE002002F084
:1024600003FEC22002F000FE002002F0FDFDC720A6
:1024700002F0FAFD002002F0F7FDD12002F0F4FD99
:10248000002002F0F1FDD52002F0EEFD002002F068
:10249000EBFDDD2002F0E8FD002002F0E5FDF32079
:1024A00002F0E2FD002002F0DFFDE42002F0E2FD98
:1024B000012002F0D9FD002002F0D6FD012002F03B
:1024C000D3FD002002F0D0FD022002F0CDFD00205F
:1024D00002F0CAFD2A2002F0C7FD002002F0C4FD70
:1024E0003C2002F0C1FD002002F0BEFD4B2002F0B6
:1024F000BBFD002002F0B8FD5D2002F0B5FD00201C
:1025000002F0B2FD742002F0AFFD002002F0ACFD3D
:10251000842002F0A9FD002002F0A6FD932002F025
:10252000A3FD002002F0A0FDA22002F09DFD0020EE
:1025300002F09AFDB32002F097FD002002F094FD16
:10254000BE2002F091FD002002F08EFDC42002F0BA
:102550008BFD002002F088FDCD2002F085FD0020DB
:1025600002F082FDD32002F07FFD002002F07CFD0E
:10257000DD2002F079FD002002F076FDF32002F06C
:1025800073FD002002F070FDE52002F073FD0020D5
:1025900002F06AFD002002F067FD002002F064FDF9
:1025A000002002F061FD022002F05EFD002002F03A
:1025B0005BFD292002F058FD002002F055FD3C2073
:1025C00002F052FD002002F04FFD4B2002F04CFDC6
:1025D000002002F049FD5D2002F046FD002002F0DF
:1025E00043FD742002F040FD002002F03DFD8420F8
:1025F00002F03AFD002002F037FD932002F034FD96
:10260000002002F031FDA22002F02EFD002002F099
:102610002BFDB32002F028FD002002F025FDBE2096
:1026200002F022FD002002F01FFDC42002F01CFD7C
:10263000002002F019FDCD2002F016FD002002F06E
:1026400013FDD32002F010FD002002F00DFDDC2070
:1026500002F00AFD002002F007FDF32002F004FD65
:10266000002002F001FDE62002F004FD112002F03E
:10267000FBFC002002F0F8FC342002F0F5FC002006
:1026800002F0F2FC562002F0EFFC002002F0ECFC1D
:10269000762002F0E9FC002002F0E6FC772002F050
:1026A000E3FC002002F0E0FC662002F0DDFC0020EC
:1026B00002F0DAFC882002F0D7FC002002F0D4FC03
:1026C000992002F0D1FC002002F0CEFCBB2002F0E9
:1026D000CBFC002002F0C8FC992002F0C5FC0020D1
:1026E00002F0C2FC662002F0BFFC002002F0BCFC3D
:1026F000552002F0B9FC002002F0B6FC552002F093
:10270000B3FC002002F0B0FC452002F0ADFC00203C
:1027100002F0AAFC432002F0A7FC002002F0A4FC77
:10272000442002F0A1FC002002F09EFCE72002F011
:10273000A1FC322002F098FC002002F095FC55200C
:1027400002F092FC002002F08FFC762002F08CFC5C
:10275000002002F089FC662002F086FC002002F0D6
:1027600083FC672002F080FC002002F07DFC6720E3
:1027700002F07AFC002002F077FC872002F074FC63
:10278000002002F071FC992002F06EFC002002F0A3
:102790006BFCBB2002F068FC002002F065FC992075
:1027A00002F062FC002002F05FFC772002F05CFC8B
:1027B000002002F059FC442002F056FC002002F0F8
:1027C00053FC562002F050FC002002F04DFC232068
:1027D00002F04AFC002002F047FC332002F044FCE7
:1027E000002002F041FC452002F03EFC002002F0F7
:1027F0003BFCE82002F03EFC002002F035FC00200B
:1028000002F032FC992002F02FFC002002F02CFC98
:10281000872002F029FC002002F026FC882002F02C
:1028200023FC002002F020FC772002F01DFC002099
:1028300002F01AFC662002F017FC002002F014FCE3
:10284000882002F011FC002002F00EFCAA2002F009
:102850000BFC002002F008FCBB2002F005FC00206D
:1028600002F002FC992002F0FFFB002002F0FCFBCA
:10287000662002F0F9FB002002F0F6FB552002F082
:10288000F3FB002002F0F0FB552002F0EDFB0020EE
:1028900002F0EAFB442002F0E7FB002002F0E4FB38
:1028A000442002F0E1FB002002F0DEFB552002F0A4
:1028B000DBFB002002F0D8FBE92002F0DBFBAA20C2
:1028C00002F0D2FB002002F0CFFB002002F0CCFB94
:1028D000002002F0C9FB002002F0CCFBAA2002F08D
:1028E000C3FBCF2002F0C6FB002002F0BDFB00209E
:1028F00002F0BAFB002002F0B7FB002002F0B4FBAC
:10290000002002F0B1FB002002F0AEFB002002F03C
:10291000ABFB002002F0A8FB002002F0A5FB00208A
:1029200002F0A2FB002002F09FFB002002F09CFBC3
:10293000002002F099FB002002F096FB002002F03C
:1029400093FB002002F090FB002002F08DFBF020B2
:1029500002F090FB002002F087FB502002F084FB85
:10296000002002F081FB002002F07EFB002002F03C
:102970007BFBF32002F07EFB002002F075FBF920C8
:1029800002F078FB062002F06FFB102002F06CFBD7
:10299000292002F069FB002002F066FB3A2002F0D9
:1029A00069FB552002F060FB112002F063FB6420FC
:1029B00004F04EF9292002F05DFB352002F05AFBAD
:1029C000002002F051FB512002F054FBFF2002F0E6
:1029D0004BFB532002F04EFB2C2002F045FB552010
:1029E00002F048FB822002F03FFB2C2002F042FB69
:1029F00002F095B8A8427CD14FF470435521184697
:102A000002F048FB4FF20104AA21204602F042FBEB
:102A1000651C5221284602F03DFB4FF203080821B5
:102A2000404602F037FB4FF204090121484602F00C
:102A300031FB0D214FF4304002F02CFB0D214BF205
:102A4000010002F027FB0D214BF2020002F022FBF5
:102A50004FF4364A3421504602F01CFB34214BF22D
:102A6000016002F017FB34214BF2026002F012FB0E
:102A70004FF4314B0D21584602F00CFB0D214BF267
:102A8000011002F007FB0D214BF2021002F002FBD5
:102A900034214FF4374002F0FDFA34214BF201703B
:102AA00002F0F8FA34214BF2027002F0F3FA00213E
:102AB0004FF4324002F0EEFA00214BF2012002F016
:102AC000E9FA00214BF2022002F0E4FA24214FF44B
:102AD000384002F0DFFA24214BF6010002F0DAFA66
:102AE00024214BF6020002F0D5FA01214FF43F40B9
:102AF00000E0FCE302F0CEFA0F214FF4334002F085
:102B0000C9FA0F214BF2013002F0C4FA0F214BF247
:102B1000023002F0BFFA34214FF4394002F0BAFA21
:102B200034214BF6011002F0B5FA34214BF60210B5
:102B300002F0B0FA08214FF4354002F0ABFA082158
:102B40004BF2015002F0A6FA08214BF2025002F0BB
:102B5000A1FA03214FF4424002F09CFA24214FF4E1
:102B60003A4002F097FA24214BF6012002F092FA43
:102B700024214BF6022002F08DFA00214FF43C4054
:102B800002F088FA78214BF6014002F083FA002126
:102B90004BF6024002F07EFA00214FF43D4002F075
:102BA00079FA78214BF6015002F074FA00214BF6C5
:102BB000025002F06FFA00214FF43E4002F06AFA30
:102BC00064214BF6016002F065FA00214FF4514098
:102BD00002F060FA33214DF2011002F05BFA00219D
:102BE0004DF2021002F056FA34214DF2031002F0B9
:102BF00051FA00214DF2041002F04CFA3A214DF244
:102C0000051002F047FA00214DF2061002F042FAD8
:102C10004A214DF2071002F03DFA00214DF2081052
:102C200002F038FA5C214DF2091002F033FA00216B
:102C30004DF20A1002F02EFA81214DF20B1002F033
:102C400029FA00214DF20C1002F024FAA6214DF2CF
:102C50000D1002F01FFA00214DF20E1002F01AFAC8
:102C6000E5214DF20F1002F015FA01214DF210107E
:102C700002F010FA13214DF2111002F00BFA0121AB
:102C80004DF2121002F006FA54214DF2131002F028
:102C900001FA01214DF2141002F0FCF982214DF2EB
:102CA000151002F0F7F901214DF2161002F0F2F9B9
:102CB000CA214DF2171002F0EDF902214DF2181061
:102CC00002F0E8F900214DF2191002F0E3F90221B7
:102CD0004DF21A1002F0DEF901214DF21B1002F044
:102CE000D9F902214DF21C1002F0D4F934214DF231
:102CF0001D1002F0CFF902214DF21E1002F0CAF9A8
:102D000067214DF21F1002F0C5F902214DF220108B
:102D100002F0C0F984214DF2211002F0BBF902212A
:102D20004DF2221002F0B6F9A4214DF2231002F068
:102D3000B1F902214DF2241002F0ACF9B7214DF2A5
:102D4000251002F0A7F902214DF2261002F0A2F997
:102D5000CF214DF2271002F09DF902214DF22810EB
:102D600002F098F9DE214DF2291002F093F90221C8
:102D70004DF22A1002F08EF9F2214DF22B1002F0E2
:102D800089F902214DF22C1002F084F9FE214DF256
:102D90002D1002F07FF903214DF22E1002F07AF986
:102DA00010214DF22F1002F075F903214DF2301071
:102DB00002F070F933214DF2311002F06BF903216A
:102DC0004DF2321002F066F96D214DF2331002F02F
:102DD00061F900214FF4524002F05CF933214DF2C9
:102DE000012002F057F900214DF2022002F052F9C1
:102DF00034214DF2032002F04DF900214DF2042060
:102E000002F048F93A214DF2052002F043F9002181
:102E10004DF2062002F03EF94A214DF2072002F061
:102E200039F900214DF2082002F034F95C214DF20D
:102E3000092002F02FF900214DF20A2002F02AF9B0
:102E400081214DF20B2002F025F900214DF20C20DA
:102E500002F020F9A6214DF20D2002F01BF900210D
:102E60004DF20E2002F016F9E5214DF20F2002F08E
:102E700011F901214DF2102002F00CF913214DF24D
:102E8000112002F007F901214DF2122002F002F99F
:102E900054214DF2132002F0FDF801214DF21420CF
:102EA00002F0F8F882214DF2152002F0F3F801212A
:102EB0004DF2162002F0EEF8CA214DF2172002F072
:102EC000E9F802214DF2182002F0E4F800214DF259
:102ED000192002F0DFF802214DF21A2002F0DAF890
:102EE00001214DF21B2002F0D5F802214DF21C20E9
:102EF00002F0D0F834214DF21D2002F0CBF802216F
:102F00004DF21E2002F0C6F867214DF21F2002F09C
:102F1000C1F802214DF2202002F0BCF884214DF2CC
:102F2000212002F0B7F802214DF2222002F0B2F87F
:102F3000A4214DF2232002F0ADF802214DF224200D
:102F400002F0A8F8B7214DF2252002F0A3F80221E3
:102F50004DF2262002F09EF8CF214DF2272002F0FC
:102F600099F802214DF2282002F094F8DE214DF26A
:102F7000292002F08FF802214DF22A2002F08AF86F
:102F8000F2214DF22B2002F085F802214DF22C2087
:102F900002F080F8FE214DF22D2002F07BF8032193
:102FA0004DF22E2002F076F810214DF22F2002F083
:102FB00071F803214DF2302002F06CF833214DF20C
:102FC000312002F067F803214DF2322002F062F85E
:102FD0006D214DF2332002F05DF800214FF4534093
:102FE00002F058F833214DF2013002F053F800217D
:102FF0004DF2023002F04EF834214DF2033002F06F
:1030000049F800214DF2043002F044F83A214DF223
:10301000053002F03FF800214DF2063002F03AF898
:103020004A214DF2073002F035F800214DF2083008
:1030300002F030F85C214DF2093002F02BF800214B
:103040004DF20A3002F026F881214DF20B3002F0E9
:1030500021F800214DF20C3002F01CF8A6214DF2AF
:103060000D3002F017F800214DF20E3002F012F888
:10307000E5214DF20F3002F00DF801214DF2103034
:1030800002F008F813214DF2113002F003F801218B
:103090004DF2123001F0FEFF54214DF2133001F0D9
:1030A000F9FF01214DF2143001F0F4FF82214DF2BD
:1030B000153001F0EFFF01214DF2163001F0EAFF6B
:1030C000CA214DF2173001F0E5FF02214DF2183010
:1030D00001F0E0FF00214DF2193001F0DBFF022189
:1030E0004DF21A3001F0D6FF01214DF21B3001F0F4
:1030F000D1FF02214DF21C3001F0CCFF34214DF202
:103100001D3001F0C7FF02214DF21E3001F0C2FF59
:1031100067214DF21F3001F0BDFF02214DF220303A
:1031200001F0B8FF84214DF2213001F0B3FF0221FC
:103130004DF2223001F0AEFFA4214DF2233001F018
:10314000A9FF02214DF2243001F0A4FFB7214DF276
:10315000253001F09FFF02214DF2263001F09AFF49
:10316000CF214DF2273001F095FF02214DF228309A
:1031700001F090FFDE214DF2293001F08BFF02219A
:103180004DF22A3001F086FFF2214DF22B3001F092
:1031900081FF02214DF22C3001F07CFFFE214DF227
:1031A0002D3001F077FF03214DF22E3001F072FF38
:1031B00010214DF22F3001F06DFF03214DF2303020
:1031C00001F068FF33214DF2313001F063FF03213C
:1031D0004DF2323001F05EFF6D214DF2333001F0DF
:1031E00059FF00214FF4544001F054FF33214DF2B8
:1031F000014001F04FFF00214DF2024001F04AFF73
:1032000034214DF2034001F045FF00214DF204400E
:1032100001F040FF3A214DF2054001F03BFF002153
:103220004DF2064001F036FF4A214DF2074001F011
:1032300031FF00214DF2084001F02CFF5C214DF2DE
:10324000094001F027FF00214DF20A4001F022FF62
:1032500081214DF20B4001F01DFF00214DF20C4089
:1032600001F018FFA6214DF20D4001F013FF0021DF
:103270004DF20E4001F00EFFE5214DF20F4001F03E
:1032800009FF01214DF2104001F004FF13214DF21E
:10329000114001F0FFFE01214DF2124001F0FAFE53
:1032A00054214DF2134001F0F5FE01214DF214407E
:1032B00001F0F0FE82214DF2154001F0EBFE0121FC
:1032C0004DF2164001F0E6FECA214DF2174001F022
:1032D000E1FE02214DF2184001F0DCFE00214DF22A
:1032E000194001F0D7FE02214DF21A4000E004E33C
:1032F00001F0D0FE01214DF21B4001F0CBFE022176
:103300004DF21C4001F0C6FE34214DF21D4001F08B
:10331000C1FE02214DF21E4001F0BCFE67214DF2BC
:103320001F4001F0B7FE02214DF2204001F0B2FE35
:1033300084214DF2214001F0ADFE02214DF22240E8
:1033400001F0A8FEA4214DF2234001F0A3FE0221CA
:103350004DF2244001F09EFEB7214DF2254001F0D0
:1033600099FE02214DF2264001F094FECF214DF24C
:10337000274001F08FFE02214DF2284001F08AFE25
:10338000DE214DF2294001F085FE02214DF22A4056
:1033900001F080FEF2214DF22B4001F07BFE022174
:1033A0004DF22C4001F076FEFE214DF22D4001F051
:1033B00071FE03214DF22E4001F06CFE10214DF202
:1033C0002F4001F067FE03214DF2304001F062FE14
:1033D00033214DF2314001F05DFE03214DF23240C8
:1033E00001F058FE6D214DF2334001F053FE0021F3
:1033F0004FF4554001F04EFE33214DF2015001F0E3
:1034000049FE00214DF2025001F044FE34214DF2FC
:10341000035001F03FFE00214DF2045001F03AFE4E
:103420003A214DF2055001F035FE00214DF20650D3
:1034300001F030FE4A214DF2075001F02BFE002131
:103440004DF2085001F026FE5C214DF2095001F0CA
:1034500021FE00214DF20A5001F01CFE81214DF2A7
:103460000B5001F017FE00214DF20C5001F012FE3E
:10347000A6214DF20D5001F00DFE00214DF20E502F
:1034800001F008FEE5214DF20F5001F003FE01218D
:103490004DF2105001F0FEFD13214DF2115001F0DC
:1034A000F9FD01214DF2125001F0F4FD54214DF2CD
:1034B000135001F0EFFD01214DF2145001F0EAFD2F
:1034C00082214DF2155001F0E5FD01214DF216501B
:1034D00001F0E0FDCA214DF2175001F0DBFD0221A1
:1034E0004DF2185001F0D6FD00214DF2195001F0B7
:1034F000D1FD02214DF21A5001F0CCFD01214DF217
:103500001B5001F0C7FD02214DF21C5001F0C2FD1D
:1035100034214DF21D5001F0BDFD02214DF21E502F
:1035200001F0B8FD67214DF21F5001F0B3FD0221FB
:103530004DF2205001F0AEFD84214DF2215001F0FA
:10354000A9FD02214DF2225001F0A4FDA4214DF26B
:10355000235001F09FFD02214DF2245001F09AFD0D
:10356000B7214DF2255001F095FD02214DF2265074
:1035700001F090FDCF214DF2275001F08BFD02218B
:103580004DF2285001F086FDDE214DF2295001F068
:1035900081FD02214DF22A5001F07CFDF2214DF215
:1035A0002B5001F077FD02214DF22C5001F072FDFD
:1035B000FE214DF22D5001F06DFD03214DF22E50F4
:1035C00001F068FD10214DF22F5001F063FD032141
:1035D0004DF2305001F05EFD33214DF2315001F0DB
:1035E00059FD03214DF2325001F054FD6D214DF291
:1035F000335001F04FFD00214FF4564001F04AFDD9
:1036000033214DF2016001F045FD00214DF20260D1
:1036100001F040FD34214DF2036001F03BFD00213B
:103620004DF2046001F036FD3A214DF2056001F0E3
:1036300031FD00214DF2066001F02CFD4A214DF2D2
:10364000076001F027FD00214DF2086001F022FD26
:103650005C214DF2096001F01DFD00214DF20A6070
:1036600001F018FD81214DF20B6001F013FD0021E6
:103670004DF20C6001F00EFDA6214DF20D6001F03F
:1036800009FD00214DF20E6001F004FDE5214DF22F
:103690000F6001F0FFFC01214DF2106001F0FAFC17
:1036A00013214DF2116001F0F5FC01214DF2126081
:1036B00001F0F0FC54214DF2136001F0EBFC01210C
:1036C0004DF2146001F0E6FC82214DF2156001F02C
:1036D000E1FC01214DF2166001F0DCFCCA214DF243
:1036E000176001F0D7FC02214DF2186001F0D2FC06
:1036F00000214DF2196001F0CDFC02214DF21A605B
:1037000001F0C8FC01214DF21B6001F0C3FC022155
:103710004DF21C6001F0BEFC34214DF21D6001F041
:10372000B9FC02214DF21E6001F0B4FC67214DF29C
:103730001F6001F0AFFC02214DF2206001F0AAFCF5
:1037400084214DF2216001F0A5FC02214DF222609E
:1037500001F0A0FCA4214DF2236001F09BFC0221AA
:103760004DF2246001F096FCB7214DF2256001F086
:1037700091FC02214DF2266001F08CFCCF214DF22C
:10378000276001F087FC02214DF2286001F082FCE5
:10379000DE214DF2296001F07DFC02214DF22A600C
:1037A00001F078FCF2214DF22B6001F073FC022154
:1037B0004DF22C6001F06EFCFE214DF22D6001F007
:1037C00069FC03214DF22E6001F064FC10214DF2E2
:1037D0002F6001F05FFC03214DF2306001F05AFCD4
:1037E00033214DF2316001F055FC03214DF232607E
:1037F00001F050FC6D214DF2336001F04BFC55217E
:10380000184601F047FCAA21204601F043FC522152
:10381000284601F03FFC0821404601F03BFC002116
:10382000484601F037FCCC21584601F033FC00211A
:103830004BF2011001F02EFC0521504601F02AFC4C
:1038400070214FF4374001F025FC70214BF20170DC
:1038500001F020FC01214FF4384001F01BFC032152
:103860004BF6010001F016FC03214BF6020001F0BB
:1038700011FC03214BF6030001F00CFC02214FF474
:103880003C4001F007FC00214BF6014001F002FC36
:1038900000214BF6024001F0FDFBD0214FF44940DE
:1038A00001F0F8FB02214CF6011001F0F3FB50216E
:1038B0004CF6021001F0EEFB50214CF6031001F023
:1038C000E9FB50214CF6041001F0E4FB00214FF419
:1038D000545001F0DFFB55214FF4685001F0DAFB42
:1038E0004FF4885001F0C6FB782003F0CBF94FF479
:1038F000245001F0BFFB01F012B9A0F513414FF4C1
:10390000E06840F2022940F23F1A4FF4274B253974
:103910002CD0A0F5134140F2077528397ED0A0F5D0
:1039200013414FF41C5B203979D0A0F51341313994
:1039300076D0A0F5A841083973D0A0F5A851053973
:1039400070D0A0F5354105396DD0A0F54541053958
:103950006AD0A0F58A41313967D0A0F58A4135395E
:103960007ED0A0F5C85163397BD0C4E747F6F0019B
:10397000E52001F08FFB2146012001F08BFB414641
:10398000022001F087FB41F23001032001F082FBAD
:103990000021042001F07EFB4946082001F07AFB5B
:1039A0000021092001F076FB00210A2001F072FBC2
:1039B00000210C2001F06EFB00210D2001F06AFBBC
:1039C00000210F2001F066FB0021102001F062FBB6
:1039D0000721112001F05EFB0021122001F05AFBAB
:1039E0000021132001F056FB0021072001F052FBBB
:1039F00041F29061102001F04DFB40F2272111208F
:103A000001F048FB9D21122001F044FB4FF4C85106
:103A1000132001F03FFB2521292007E083E06FE11F
:103A200015E2EFE28CE3FDE3FDE3FDE301F032FBA1
:103A30000D212B2001F02EFB0721302001F02AFB65
:103A400040F20331312001F025FB0321322001F047
:103A500021FB40F20621352001F01CFB082101E08A
:103A6000FEE3FEE3362001F015FB40F2064137206D
:103A700001F010FB4FF44171382001F00BFB0721DE
:103A8000392001F007FB40F202613C2001F002FB0B
:103A900008213D2001F0FEFA0021502001F0FAFA41
:103AA000EF21512001F0F6FA0021522001F0F2FA44
:103AB0005146532001F0EEFA5946602001F0EAFA2F
:103AC0000121612001F0E6FA00216A2001F0E2FA0A
:103AD0000021802001F0DEFA0021812001F0DAFAD5
:103AE0000021822001F0D6FA0021832001F0D2FAD1
:103AF0000021842001F0CEFA0021852001F0CAFACD
:103B00001021902001F0C6FA4FF4C061922001F01C
:103B1000C1FA40F23311072001F0BCFA2221002043
:103B200001F0B8FAE7E641F28F01EC2001F0B2FAB9
:103B300041F23421EF2001F0ADFA2146012001F0DD
:103B4000A9FA4146022001F0A5FA41F23001032012
:103B500001F0A0FA0021042001F09CFA4946082057
:103B600001F098FA0021092001F094FA00210A20BE
:103B700001F090FA01210C2001F08CFA00210D20B7
:103B800001F088FA00210F2001F084FA00211020B2
:103B900001F080FA0721112001F07CFA00211220A7
:103BA00001F078FA0021132001F074FA01210720B6
:103BB00001F070FA322003F04BF841F290411020EE
:103BC00001F068FA40F22721112001F063FA322057
:103BD00003F03EF88A21122001F05CFA322003F053
:103BE00037F84FF4D051132001F054FA0621292060
:103BF00001F050FA0D212B2001F04CFA322003F095
:103C000027F80021202001F045FA0021212001F0B1
:103C100041FA322003F01CF80021302001F03AFA7A
:103C200040F20461312001F035FA40F205313220D2
:103C300001F030FA0021352001F02CFA40F609415C
:103C4000362001F027FA4FF40171372001F022FAF3
:103C500040F20131382001F01DFA2946392001F0E7
:103C600019FA00213C2001F015FA40F60A213D2006
:103C700001F010FA322002F0EBFF0021502001F099
:103C800009FAEF21512001F005FA0021522001F03C
:103C900001FA5146532001F0FDF95946602001F028
:103CA000F9F90121612001F0F5F900216A2001F004
:103CB000F1F90021802001F0EDF90021812001F0CF
:103CC000E9F90021822001F0E5F90021832001F0CB
:103CD000E1F90021842001F0DDF90021852001F0C7
:103CE000D9F91021902001F0D5F94FF4C06192204C
:103CF00001F0D0F940F23311072001F0CBF9FAE5D9
:103D00000021084601F0C6F92146012001F0C2F960
:103D10004146022001F0BEF941F23001032001F0DA
:103D2000B9F90021042001F0B5F94946082001F055
:103D3000B1F90021092001F0ADF900210A2001F0BC
:103D4000A9F901210C2001F0A5F900210D2001F0B5
:103D5000A1F900210F2001F09DF9322002F078FF37
:103D600040F20111072001F095F9322002F070FFB6
:103D70004FF48651102001F08DF90721112001F038
:103D800089F94FF488731946122001F083F94FF432
:103D90003061132001F07EF90021292001F07AF929
:103DA00044F210012B2001F075F90021502001F0A0
:103DB00071F9EF21512001F06DF90021522001F03D
:103DC00069F95146532001F065F95946602001F028
:103DD00061F90121612001F05DF900216A2001F003
:103DE00059F90021802001F055F90021812001F0CE
:103DF00051F90021822001F04DF90021832001F0CA
:103E000049F90021842001F045F90021852001F0C5
:103E100041F91021902001F03DF90021922001F09C
:103E200039F90121932001F035F91946952001F067
:103E300031F90021972001F02DF90021982001F09F
:103E400029F940F27311072001F024F953E541F2FA
:103E50001401E72001F01EF92146012001F01AF9B2
:103E60004FF40071022001F015F941F238010320EE
:103E700001F010F94946082001F00CF90021092051
:103E800001F008F900210A2001F004F900210C20BA
:103E900001F000F900210D2001F0FCF800210F20B5
:103EA00001F0F8F80021102001F0F4F807211120AA
:103EB00001F0F0F80021122001F0ECF800211320AD
:103EC00001F0E8F8C82002F0C3FE41F29061102032
:103ED00001F0E0F840F22721112001F0DBF8322058
:103EE00002F0B6FE0C21122001F0D4F8322002F0CC
:103EF000AFFE4FF40061132001F0CCF8112129200E
:103F000001F0C8F80B212B2001F0C4F8322002F098
:103F10009FFE0021202001F0BDF85146212001F034
:103F2000B9F80021302001F0B5F84FF48373194639
:103F3000312001F0AFF80021322001F0ABF84FF44E
:103F40000171352001F0A6F841F20A61362001F036
:103F5000A1F82946372001F09DF81946382001F0D4
:103F600099F82946392001F095F840F202413C20A9
:103F700001F090F840F60F413D2001F08BF8002150
:103F8000502001F087F8EF21512001F083F8002143
:103F9000522001F07FF85146532001F07BF859463A
:103FA000602001F077F80121612001F073F8002111
:103FB0006A2001F06FF80021802001F06BF80021E9
:103FC000812001F067F80021822001F063F80021D0
:103FD000832001F05FF80021842001F05BF80021CC
:103FE000852001F057F81021902001F053F84FF48C
:103FF000C061922001F04EF840F23311072001F029
:1040000049F878E42146012001F044F841460220B5
:1040100001F040F841F23001032001F03BF80021AB
:10402000042001F037F840F20721082001F032F8AF
:104030000021092001F02EF800210A2001F02AF8C1
:1040400000210C2001F026F800210D2001F022F8BB
:1040500000210F2001F01EF8142002F0F9FD41F2BA
:10406000B061102001F016F80121112001F012F8C2
:104070000121172001F00EF84FF49C71122001F07D
:1040800009F84FF40061132001F004F809212920F8
:1040900001F000F809212A2000F0FCFF0021A420F3
:1040A00000F0F8FF0021502000F0F4FFEF21512034
:1040B00000F0F0FF0021522000F0ECFF51465320A9
:1040C00000F0E8FF5946602000F0E4FF0121612084
:1040D00000F0E0FF00216A2000F0DCFF00218020DA
:1040E00000F0D8FF0021812000F0D4FF00218220C1
:1040F00000F0D0FF0021832000F0CCFF00218420BD
:1041000000F0C8FF0021852000F0C4FF132190209B
:1041100000F0C0FF0021922000F0BCFF032193209B
:1041200000F0B8FF4FF48871952000F0B3FF40F223
:104130007311072000F0AEFF322002F089FD14E475
:104140000021072000F0A6FF322002F081FD4FF48D
:104150008E71122000F09EFF0121A42000F09AFF32
:104160000F21082000F096FF08210A2000F092FF9E
:1041700008210D2000F08EFF2946302000F08AFF34
:104180000721312000F086FF40F20361322000F069
:1041900081FF4146332000F07DFF4946342000F086
:1041A00079FF0221352000F075FF41F60F713620AE
:1041B00000F070FF2946372000F06CFF0021382006
:1041C00000F068FF0021392000F064FF29463A2002
:1041D00000F060FF00213B2000F05CFF07213C2045
:1041E00000F058FF00213D2000F054FF322002F083
:1041F0002FFD0121072000F04DFF0121172000F0C5
:1042000049FF322002F024FD4FF4BD51102000F090
:1042100041FF40F21721112000F03CFF4FF48F7155
:10422000122002E09DE097E161E200F033FF4FF4DD
:104230007061132000F02EFF00212A2000F02AFFD9
:104240000A21292000F026FF4FF49F71122000F070
:1042500021FF0021502000F01DFFEF21512001E03F
:10426000FAE2A4E300F016FF0021522000F012FF52
:104270005146532000F00EFF5946602000F00AFF1F
:104280000121612000F006FF00216A2000F002FFFA
:104290000021802000F0FEFE0021812000F0FAFEC7
:1042A0000021822000F0F6FE0021832000F0F2FEC3
:1042B0000021842000F0EEFE0021852000F0EAFEBF
:1042C0001321902000F0E6FE4FF44071922000F0A0
:1042D000E1FE0521932000F0DDFE0021952000F095
:1042E000D9FE0021972000F0D5FE0021982000F093
:1042F000D1FE2146012000F0CDFE4146022000F013
:10430000C9FE41F23801032000F0C4FE0021042060
:1043100000F0C0FE00210C2000F0BCFE00210F20A8
:1043200000F0B8FE0021202000F0B4FE0021212082
:1043300000F0B0FE2121072000F0ACFE142002F0B6
:1043400087FC6121072000F0A5FE142002F080FC0C
:1043500040F27311072000F09DFE142002F078FC5B
:10436000DDE30021084600F095FE0021084600F03C
:1043700091FE0021084600F08DFE0021084600F065
:1043800089FE0121A42000F085FE142002F060FCCB
:104390005946602000F07EFE4946082000F07AFE73
:1043A0004FF40571302000F075FE43F21571312095
:1043B00000F070FE40F20461322000F06BFE40F627
:1043C0001661332000F066FE42F21121342000F025
:1043D00061FE4FF4A851352000F05CFE48F2075111
:1043E000362000F057FE41F20741372000F052FE20
:1043F00041F20341382000F04DFE2021392000F029
:1044000049FE1A21902000F045FE0021102000F006
:1044100041FE0721112000F03DFE0021122000F096
:1044200039FE0021132000F035FE142002F010FCAC
:104430004FF4E661102000F02DFE40F237111120FC
:1044400000F028FE142002F003FC4FF4DC7112206F
:1044500000F020FE142002F0FBFB4FF470611320EB
:1044600000F018FE80212A2000F014FE48212920A7
:1044700000F010FE142002F0EBFB2146012000F0BA
:1044800009FE4146022000F005FE41F238010320FA
:1044900000F000FE4946082000F0FCFD00210A2043
:1044A00000F0F8FD00210C2000F0F4FD00210D20AB
:1044B00000F0F0FD30210E2000F0ECFD0021502036
:1044C00000F0E8FDEF21512000F0E4FD0021522032
:1044D00000F0E0FD5146532000F0DCFD594660201D
:1044E00000F0D8FD0121612000F0D4FD00216A20F8
:1044F00000F0D0FD1121902000F0CCFD4FF4C06100
:10450000922000F0C7FD40F20241932000F0C2FD6E
:104510000221942000F0BEFD142002F099FB01213D
:10452000072000F0B7FD142002F092FB6121072064
:1045300000F0B0FD40F27311072000F0ABFD002148
:10454000202000F0A7FD0021212000F0A3FD222162
:10455000002000F09FFDE2E20021084600F09AFDF5
:104560000021084600F096FD142002F071FB0021A6
:10457000084600F08FFD0021084600F08BFD002169
:10458000084600F087FD0021084600F083FD012168
:10459000A42000F07FFD142002F05AFB5946602051
:1045A00000F078FD40F60601082000F073FD40F2AF
:1045B00003731946302000F06DFD0121312000F019
:1045C00069FD0421322000F065FD4FF48171332034
:1045D00000F060FD4FF440752946342000F05AFD8C
:1045E00040F20311352000F055FD1F21362000F068
:1045F00051FD1946372000F04DFD0121382000F013
:1046000049FD0421392000F045FD1521902000F0DE
:1046100041FD4FF48261102000F03CFD40F2472143
:10462000112000F037FD4FF4DE71122000F032FD52
:104630004FF46061132000F02DFD782002F008FB9C
:104640002146012000F026FD4FF40071022000F009
:1046500021FD41F23001032000F01CFD08210A2059
:1046600000F018FD00210C2000F014FD20210E2088
:1046700000F010FD00210F2000F00CFD0021202093
:1046800000F008FD0021212000F004FD3D212A203A
:1046900000F000FD142002F0DBFA2D21292000F0AB
:1046A000F9FC0021502000F0F5FC4DF2EF01512003
:1046B00000F0F0FC0021522000F0ECFC51465320A9
:1046C00000F0E8FC0021612000F0E4FC00216A20F9
:1046D00000F0E0FC2946922000F0DCFC052193204C
:1046E00000F0D8FC2146072000F0D4FC17E201219D
:1046F000002000F0CFFC0A2002F0AAFA41F2286163
:10470000102000F0C7FC0E21122000F0C3FC40F680
:104710003921132000F0BEFC0A2002F099FA402152
:10472000112000F0B7FC5021152000F0B3FC0A2046
:1047300002F08EFA1E21122000F0ACFC0A2002F0DA
:1047400087FA4FF4B151102000F0A4FC42F6392151
:10475000132000F09FFC0A2002F07AFA2146012083
:1047600000F098FC4FF44071022000F093FC41F2FD
:104770003801032000F08EFC4946082000F08AFC36
:1047800008210A2000F086FC0021302000F082FC85
:1047900040F20241312000F07DFC4FF48371322061
:1047A00000F078FC40F20351332000F073FC4FF42A
:1047B0008271342000F06EFC40F20131352000F0AF
:1047C00069FC2946362000F065FC40F205313720AF
:1047D00000F060FC4FF40271382000F05BFC40F602
:1047E0000B71392000F056FC0221412000F052FCF0
:1047F0005946602000F04EFC0121612000F04AFC87
:104800004FF40471902000F045FC4FF48571922024
:1048100000F040FC0421932000F03CFC2146A02045
:1048200000F038FC0121072000F034FC2121072092
:1048300000F030FC2321072000F02CFC332107205E
:1048400000F028FC40F23311072000F023FC002187
:10485000A02000F01FFC62E13021152000F01AFCBE
:1048600010219A2000F016FC2021112000F012FCEB
:1048700043F22841102000F00DFC0221122000F02C
:1048800009FC41F23801132000F004FC282002F05A
:10489000DFF91221084600F0FDFB282002F0D8F9CC
:1048A00043F22041102000F0F5FB43F238011320C1
:1048B00000F0F0FB462002F0CBF90021302000F0A0
:1048C000E9FB40F20241312000F0E4FB40F2073105
:1048D000322000F0DFFB4FF44171332000F0DAFBAF
:1048E0000421342000F0D6FB40F20141352000F0D5
:1048F000D1FB2946362000F0CDFB40F205313720B0
:1049000000F0C8FB4FF4C2631946382000F0C2FB28
:104910001946392000F0BEFB2146012000F0BAFB09
:104920004FF44071022000F0B5FB41F2300103204A
:1049300000F0B0FB40F60801082000F0ABFB0821B6
:104940000A2000F0A7FB5946602000F0A3FB0121DC
:10495000612000F09FFB4FF49F71902000F09AFBC4
:104960002146922000F096FB2146932000F092FB16
:104970004FF44051A02000F08DFB1021A32000F047
:1049800089FB0121072000F085FB2121072000F091
:1049900081FB2321072000F07DFB3321072000F05D
:1049A00079FB40F23311072000F074FBB7E0E220FE
:1049B00000F060FB1D2000F057FB022000F054FBCC
:1049C000042000F051FB642002F05CF9E02000F0CC
:1049D00051FB012000F048FB0A2002F039F9E020E9
:1049E00000F048FB032000F03FFB0C2002F030F900
:1049F000012000F03FFB0A2002F02AF9E62000F037
:104A000039FB2F2000F030FBFF2000F02DFBFF20B2
:104A100000F02AFBB02000F02DFB202000F024FB4A
:104A2000002000F021FB032000F01EFB40F21F30AD
:104A300000F01AFB012000F017FB40F2DF1000F03D
:104A400013FB002000F010FBB42000F013FB042047
:104A500000F00AFB40F21F4000F006FB002000F0CF
:104A600003FB2E2000F000FB002000F0FDFA0020E8
:104A700000F0FAFA002000F0F7FA002000F0F4FA53
:104A8000B62000F0F7FA022000F0EEFA4FF40370BF
:104A900000F0EAFA002000F0E7FA172000F0E4FA4C
:104AA000152000F0E1FA002000F0DEFA002000F00E
:104AB000DBFAF02000F0DEFA032000F0D5FA29201E
:104AC00000F0D8FAD02000F0D5FA002000F0CCFA9F
:104AD000BE2000F0CFFA052000F0C6FAFE2000F05C
:104AE000C3FA012000F0C0FA002000F0BDFA002057
:104AF00000F0BAFA002000F0B7FAB82000F0BAFAD5
:104B0000032000F0B1FA012000F0AEFABA2000F064
:104B1000B1FA012000F0A8FA642000F021F800208A
:104B2000FCF71AFB034807603046FCF7DDFA1FB0BC
:104B3000BDE8F08F8081214208B5034800880090CD
:104B4000BDF8000008BD00000008006C10B500F0C2
:104B500091FA052002F096F8BDE81040FFF7ECBF8F
:104B600010B50246BE2000F085FA052000F07CFA60
:104B70001046FBF748FC4FF066320B4BFBF7C8FBC7
:104B8000FBF767FC80B200F06FFA012000F06CFACE
:104B9000FF2000F069FA002000F066FABDE810403E
:104BA000002000F061BA000066660440F0B5002302
:104BB000834C46F604072146A279898841F663159D
:104BC000012A03D1B94201D0A94202D1C2B9A942F6
:104BD00016D1082814D2DFE800F00406080A0C0EEB
:104BE000101206200CE007200AE0042008E005204F
:104BF00006E0012004E0002002E0032000E00220A3
:104C0000A1F5134C45F2103245F21056BCF1410C9F
:104C100007D0B94205D0914203D0B14201D0A94298
:104C20007DD1082812D2DFE800F0110406080A0C32
:104C30000E1080230AE0402308E0C02306E0202372
:104C400004E0602302E0A02300E0E023B14202D1AF
:104C50004FF4585000E03620914205D0B14203D0C5
:104C6000A94201D043F00803B94201D143F0020345
:104C7000194600F00FFAA288AA420ED0980606D56F
:104C800020886188884208D22180608005E02088E1
:104C90006188884201D921806080B24249D160890F
:104CA00000F0E8F9002000F0DFF96089401C80B2D4
:104CB00000F0E0F9002000F0D7F96089801C80B294
:104CC00000F0D8F92088401EC0F30F2000F0CCF986
:104CD0006089C01C80B200F0CDF92078401EC0B2BF
:104CE00000F0C2F9A08900F0C5F9002000F0BCF97D
:104CF000A089401C80B200F0BDF9002000F0B4F99A
:104D0000A089801C80B200F0B5F96088401EC0F315
:104D10000F2000F0A9F9A089C01C80B200E032E0A9
:104D200000F0A8F9A078BDE8F040401EC0B200F045
:104D30009BB9608900F09EF9002000F095F90020F1
:104D400000F092F92088401EC0F30F2000F08CF98B
:104D50002078401EC0B200F087F9A08900F08AF9DF
:104D6000002000F081F9002000F07EF96088401EEC
:104D7000C0F30F2000F078F9A078BDE8F040401EA5
:104D8000C0B200F071B9082812D2DFE800F00406C2
:104D900008110A0C0E1030230AE0102308E020232B
:104DA00006E0382304E0282302E0182300E008236B
:104DB000032043F48051BDE8F04000F06BB90000DF
:104DC000A60100202DE9F04102460B46584E1F0A6D
:104DD0003046B1884089A1F513444FEA1228413C7E
:104DE0001AD0A1F5A644103C16D03446A1F5D04CFB
:104DF000A5792488A41A641EBCF1040C1FD0A1F567
:104E0000C85CBCF1630C30D0A1F5A04CBCF5A26C21
:104E100065D0012D7DD082E000F02CF9404600F0F5
:104E200023F9D0B200F020F9B08900F023F9384618
:104E300000F01AF9BDE8F041D8B200F015B9012D23
:104E400000D1A2B200F016F9100A00F00DF9D0B2AC
:104E500000F00AF9B08900F00DF9384600F004F9C5
:104E6000BDE8F041D8B200F0FFB845B300F002F958
:104E7000404600F0F9F8D0B200F0F6F83088401E55
:104E8000C0F30F2000F0F0F83078401EC0B200F000
:104E9000EBF8B08900F0EEF8384600F0E5F8D8B24B
:104EA00000F0E2F87088401EC0F30F2000F0DCF83C
:104EB000B078BDE8F041401EC0B200F0D5B8A2B253
:104EC00000F0D8F8002000F0CFF8002000F0CCF877
:104ED000100A00F0C9F8D0B200F0C6F8D9E700F027
:104EE000C9F8404600F0C0F87089401C80B200F05C
:104EF000C1F8D0B200F0B8F8B08900F0BBF838467D
:104F000000F0B2F8B089401C80B200F0B3F8D8B21B
:104F100000E003E0BDE8F04100F0A6B8A2B21146FF
:104F200000F0B8F8B089BDE8F041194600F0B2B819
:104F3000A60100202DE9F84F82460C461F46A346E5
:104F4000780701D0012000E0002000EBD7007908AD
:104F50004843C0B20090203A02F0FF09002649E021
:104F60000C2F14D0102F19D0182F46D1244909EB3B
:104F7000C90001EB8000855D4FF00008280612D5BE
:104F80002048214602885046FCF7EEF913E01E49FE
:104F900009EB490001EB8000855DEDE71B4800EB64
:104FA0000910855DE8E70A9828B916482146428825
:104FB0005046FCF7D9F96806050E641CA4B21448E3
:104FC0004088A04219D9A4EB0B00B84209D15C4635
:104FD0000AF1010A1FFA8AFA0D48008850450CD9D7
:104FE00006E008F1010808F0FF08B8F1080FC5D382
:104FF000761CF6B200988642B2D3BDE8F88F000066
:10500000707900088E0000200C6F00088073000883
:10501000A60100202DE9F84F0446DDE90A760D4689
:1050200004F0FF0810191FFA80F958191FFA80FAC6
:105030004FF0000B11E04C4502D34446E81985B20D
:1050400055450FD23B4629462046CDF800B0FFF724
:1050500071FF04EB570084B2761C3278A2F1200075
:105060005E28E8D9BDE8F88F014908807047000044
:105070000008006C0149088070470000FE07006CC2
:10508000024803490089088070470000A6010020FB
:10509000FE07006C024A1080901C018070470000DF
:1050A000FE07006CFEE7704770B504460F25E078F8
:1050B000002805D0012803D075211FA000F060FE54
:1050C0006078102803D376211BA000F059FEA07849
:1050D000102803D3772118A000F052FEE0780123B6
:1050E000F8B11848006800F4E060C0F5E060000A1C
:1050F000C0F10402C54061789140A078284008437F
:105100000001217801F1E02181F80004207800F00D
:105110001F018B404009800000F1E020C0F8003101
:1051200070BD207800F01F018B404009800000F125
:10513000E020C0F8803170BD7372635C6D69736389
:105140002E6300000CED00E010B50446B4F5E06FEE
:105150000FD0B4F5C06F0CD0B4F5A06F09D0B4F582
:10516000806F06D0B4F5407F03D0632103A000F028
:1051700007FE054804430548046010BD7372635C74
:105180006D6973632E6300000000FA050CED00E00A
:105190000021002806D0012806D0032806D00428C4
:1051A00007D105E0B02104E0982102E0182100E0D9
:1051B0003021552000F0E6BA70B5802422255E2605
:1051C000002806D0012808D003280AD004280FD1CF
:1051D0000BE0402411252F260AE066241B254B26D0
:1051E00006E099242825712602E0C02433258D2667
:1051F00021464F2000F0C6FA2146502000F0C2FAA6
:105200000021512000F0BEFA2946522000F0BAFADF
:105210003146532000F0B6FA2146542000F0B2FA8D
:10522000BDE870409E21582000F0ACBA4021002813
:1052300006D0012806D0032806D0042807D105E0AF
:10524000302104E0382102E0502100E060215620A6
:1052500000F098BAF8B50024012140F23D1000F0AA
:105260003DF94FF48075ADF8005048268DF8036085
:1052700003208DF80200354F69463846FBF708FDDC
:1052800029463846FBF7EEFE1820ADF80000102541
:105290008DF803502E4F69463846FBF7F9FC18216C
:1052A0003846FBF7DFFEFF20ADF800008DF8036005
:1052B00069462848FBF7ECFC4020ADF800008DF86B
:1052C0000350254E69463046FBF7E2FC402130464C
:1052D000FBF7C8FE4FF44046ADF800608DF8035070
:1052E0001E4D69462846FBF7D3FC31462846FBF79E
:1052F000B9FE01211A48FBF779FD00F01BF9802166
:10530000122000F03FFA08B10120F8BD322001F070
:105310009FFC0B2000F09AF9732801D00220F8BD01
:105320000A2000F093F9762801D00220F8BD0D4D37
:1053300005EB4400417815F8140000F023FA641CD2
:10534000A4B2732CF4D30020F8BD00000008014083
:10535000000C0140001001400014014000200140F9
:1053600000023000CC86000870B5E721002400253B
:10537000012806D0022808D003280AD004280FD11B
:105380000BE0E5215A245C250AE0E521582460253C
:1053900006E0E52184244C2502E0E5219624402501
:1053A000132000F0EFF92146012000F0EBF9294627
:1053B000BDE87040022000F0E5B970B50421C024BA
:1053C0008025072818D2DFE800F01704070A0C1020
:1053D0001400242180240FE0142180240CE01421E7
:1053E0000AE014214024402506E014218024C02531
:1053F00002E01421A02440253A2000F0C3F9214600
:10540000682000F0BFF92946BDE87040672000F031
:10541000B9B92DE9F04105460F4605EB420086B2C9
:1054200007EB430084B2B4F5447F02D9A4F5447479
:10543000A4B2032000F00AF900F0F00006F0030225
:10544000294662F39F010143032000F09BF9C5F355
:105450008701192000F096F9C6F387011A2000F0A1
:1054600091F9322000F0F2F8C7F3C701172000F0DD
:1054700089F9C4F3C701BDE8F041182000F082B9F2
:105480007047000070B504460D4640F2575034EAAC
:10549000000000D124B940F22B410AA000F070FCBA
:1054A00035B1012D04D040F22C4106A000F068FC7B
:1054B00009481DB141692143416170BD4169A14362
:1054C000416170BD7372635C73746D3332663130E9
:1054D000785F7263632E63000010024070B504466B
:1054E0000D460D48044200D124B940F24A410BA0B8
:1054F00000F046FC35B1012D04D040F24B4107A02D
:1055000000F03EFC0A481DB181692143816170BDF4
:105510008169A143816170BD0200C0FF7372635C49
:1055200073746D3332663130785F7263632E63005B
:105530000010024038B501214FF49070FFF7CEFF04
:105540004FF40055ADF8005048208DF803000320BB
:105550008DF80200104C69462046FBF799FB29465E
:105560002046FBF77FFD0820ADF8000010208DF8E5
:1055700003000A4D69462846FBF78AFB08212846A6
:10558000FBF770FD606820F470006060606840F4B4
:105590004010606038BD0000002001400014014050
:1055A00070B5322001F06EFB094C01202060094DDE
:1055B0002860322001F066FB00262E60322001F0C8
:1055C00061FB2660BDE87040322001F05BBB00004B
:1055D000B40124428C8122422DE9F0470024184E68
:1055E000706820F470007060706840F400007060B3
:1055F0000825DFF85090144F4FF00108A2463220E2
:1056000001F040FBC7F88C816006040ED9F8340124
:1056100008B1641CE4B2322001F034FBC7F88CA15D
:105620006D1EEDB2002DEAD1706820F4700070603C
:10563000706840F4401070602046BDE8F0870000BC
:1056400000200140000024420080224210B50446A0
:1056500000F022F8422000F04BF8642001F012FB29
:10566000204600F045F8642001F00CFB00F028F81B
:10567000642001F007FB00F00FF8432000F038F839
:10568000642001F0FFFAFFF7A7FF0446FFF788FF49
:1056900000F016F8204610BD70B5074C01202060C0
:1056A000064D2860322001F0EDFA002626603220F7
:1056B00001F0E8FA2E6070BDB40124428C812242D0
:1056C00070B5094C00202060322001F0DBFA074859
:1056D00001250560322001F0D5FA2560BDE8704053
:1056E000322001F0CFBA0000B40124428C81224262
:1056F0002DE9F04705460024DFF87C801F4EA146C7
:105700000127280602D5C8F8B47101E0C8F8B491A1
:105710006806050E322001F0B5FAC6F88C71322009
:1057200001F0B0FAC6F88C91641CE4B2082CE8D3FE
:10573000134C606820F470006060606840F4000002
:105740006060322001F09EFAC6F88C71322001F0C0
:1057500099FAD8F8340108B1012000E00020C6F819
:105760008C91616821F470016160616841F44011BD
:105770006160BDE8F0870000000024420080224202
:105780000020014070B506460D460024FFF784FF57
:105790004220FFF7ADFF00B10124642001F072FA4E
:1057A0003046FFF7A5FF00B10124642001F06AFA3A
:1057B0002846FFF79DFF00B10124FFF781FF204637
:1057C00070BD7047AFF300800CB5002201920092CB
:1057D0002748016841F4803101604FF4A0630168FB
:1057E00001F4003100910199491C0191009911B90E
:1057F00001999942F3D10168890302D501210091F1
:1058000000E000920099012930D11A490A6842F05B
:1058100010020A600A6822F003020A600A6842F075
:1058200002020A604168416041684160416841F498
:1058300080614160416821F47C114160416841F41C
:10584000E8114160016841F08071016001688901DF
:10585000FCD5416821F003014160416841F002013B
:1058600041604168C1F381010229FAD10CBD0000F9
:10587000001002400020024010B50446042C05D060
:10588000601D03D0CA2108A000F07AFA4FF0E02092
:10589000042C04D0016921F00401016110BD0169EB
:1058A00041F00401016110BD7372635C6D69736343
:1058B0002E6300007047000010B50F48016841F0EA
:1058C0000101016041680D4A1140416001680C4AC4
:1058D00011400160016821F480210160416821F4D8
:1058E000FE0141604FF41F018160FFF76BFF054926
:1058F0004FF00060086010BD001002400000FFF88B
:10590000FFFFF6FE08ED00E070B5154C40F225559E
:105910002946204600F082F840B12946204600F092
:1059200023F8204600F0FEF80E49087040F2277573
:105930002946204600F072F818B12946204600F0AA
:1059400013F840F226652946204600F067F8002843
:1059500005D029462046BDE8704000F005B870BD6E
:1059600000380140920000202DE9F04704460D4622
:105970001F4FDFF88080DFF88090BC420ED0444596
:105980000CD04C450AD01D48844207D01C488442A4
:1059900004D040F20A411BA000F0F2F9A5F5C06066
:1059A00040F66A1626380ED0A5F5A06025380AD034
:1059B000A5F50060463806D0B54204D040F20B4150
:1059C00010A000F0DDF9B5420AD1BC4208D0444530
:1059D00006D04C4504D040F20F410AA000F0D0F9A7
:1059E000290A01208840C0432080BDE8F0870000DC
:1059F000003801400044004000480040004C004096
:105A0000005000407372635C73746D3332663130E2
:105A1000785F75736172742E630000002DE9F047A2
:105A200005460C460026DFF8D080DFF8D090DFF87E
:105A3000D0A045450ED04D450CD055450AD0314833
:105A4000854207D03048854204D040F2C1312FA0B2
:105A500000F096F940F66A17282C23D0A4F5E060F0
:105A600027381FD0A4F5C06026381BD0A4F5A0604D
:105A7000253817D0A4F58060243813D0A4F5006031
:105A800046380FD0BC420DD0B4F5587F0AD0B4F5DB
:105A9000187F07D0B4F5B07F04D040F2C2311BA00C
:105AA00000F06EF9BC420AD1454508D04D4506D0FC
:105AB000554504D040F2C63114A000F061F9C4F39A
:105AC000421104F01F02012303FA02F001290DD054
:105AD00002290ED0A98A0140220A93402A881A403E
