:020000040800F2
:1000000040040020010100082B440008010E0008F4
:10001000294400089F030008A551000800000000C3
:100020000000000000000000000000007150000807
:10003000A103000800000000AD480008515100086D
:100040001B0100081B0100081B0100081B01000820
:100050001B0100081B0100081B0100081B01000810
:100060001B0100081B0100081B0100081B01000800
:100070001B0100081B0100081B0100081B010008F0
:100080001B0100081B0100081B0100081B010008E0
:100090001B0100081B0100081B010008E503000804
:1000A0001B0100081B0100081B0100081B010008C0
:1000B0001B0100081B0100081B0100081B010008B0
:1000C0001B0100081B0100081B0100081B010008A0
:1000D0001B0100081B0100081B0100081B01000890
:1000E0001B0100081B0100081B010008DFF80CD0F1
:1000F00000F034F9004800479554000840040020FF
:100100000648804706480047FEE7FEE7FEE7FEE7B1
:10011000FEE7FEE7FEE7FEE7FEE7FEE755510008D3
:10012000ED0000082DE9FE4F81EA030404F00044CD
:1001300021F0004100944FF0000B23F0004350EAFF
:1001400001045ED052EA03045BD0C3F30A54C1F346
:100150000A552C44A4F2F3340194A0FB0254C1F3D9
:10016000130141F48011C3F3130343F4801301FB23
:10017000024400FB034E840A970A44EA815447EA8A
:100180008357A4FB076802958D0A05FB07854FEA94
:10019000932C04FB0C542705029D4FEA065847EAAE
:1001A0001637B5EB08056EEB070C870E920E47EA83
:1001B000811742EA8312A7FB0201B6EB0B0164EB45
:1001C00000042B0D43EA0C335E1844EB1C50DA4656
:1001D0005146E7FB0201C5F313044FEA0B3343EA30
:1001E00014534FEA0432019C43EA0603A4F10C04C1
:1001F0000294009CCDE900B400F061F803B0BDE8C2
:10020000F08F00200146F9E70EB540F2334102912C
:100210000021CDE900110A460B4600F050F803B06A
:1002200000BDC1F30A5210B5C1F3130140F2FF3310
:1002300041F480119A4201DA002010BD40F23343AC
:100240009A42A2F2334203DC524200F019F810BD88
:10025000904010BD30B50B460146002020220124FD
:1002600009E021FA02F59D4205D303FA02F5491B84
:1002700004FA02F52844151EA2F10102F1DC30BD9A
:10028000202A04DB203A21FA02F00021704721FAEB
:1002900002F3D040C2F12002914008431946704752
:1002A00010B5141E73F1000408DA401C41F100017E
:1002B00092185B411A4301D120F0010010BD2DE9D5
:1002C000F04D92469B4611B1B1FA81F202E0B0FACC
:1002D00080F22032904600F053F804460F4640EA80
:1002E0000A0041EA0B0153465A46084313D011460F
:1002F00053EA010019D0C8F140025046FFF7C0FF91
:1003000005460E4650465946424600F039F8084325
:1003100005D0012004E020463946BDE8F08D0020DC
:10032000054346EAE0762C4337430A986305E40A1E
:10033000A0EB08000022FD0A44EA47540A3002D527
:1003400000200146E9E7010510196941DDE908458A
:1003500000196941BDE8F04DA2E70000064C074DC9
:1003600006E0E06840F0010394E807009847103485
:10037000AC42F6D3FFF7BEFE2C7000084C700008AC
:10038000202A04DB203A00FA02F100207047914055
:10039000C2F1200320FA03F3194390407047FEE7AF
:1003A00070473EB50821002000F0AEFA4FF480708F
:1003B000002400908DF8044008208DF805000125E8
:1003C0008DF80650684600F0A7F817208DF8080051
:1003D0008DF809408DF80A408DF80B5002A804F002
:1003E0007FF83EBD70B54FF48074204600F03EF8B3
:1003F000012815D10D4A0E4D0020117811B10129A7
:100400000AD00DE00B4BC3F8980101211170C5F81B
:100410008C11C3F8981103E0C5F88C01022010700C
:100420002046BDE8704000F007B800002200002020
:10043000008021420080224210B50446000D00D108
:100440001CB9FC2102A004F0ABFF0748046010BDFA
:100450007372635C73746D3332663130785F6578C4
:1004600074692E63000000001404014070B500257B
:100470000446012835D0022C33D0042C31D0082C6E
:100480002FD0102C2DD0202C2BD0402C29D0802CDC
:1004900027D0B4F5807F24D0B4F5007F21D0B4F507
:1004A000806F1ED0B4F5006F1BD0B4F5805F18D0FC
:1004B000B4F5005F15D0B4F5804F12D0B4F5004FFD
:1004C0000FD0B4F5803F0CD0B4F5003F09D0B4F59F
:1004D000802F06D0B4F5002F03D0E52107A004F04B
:1004E0005FFF0C4800680B49204014310968214225
:1004F00001D000B10125284670BD00007372635C15
:1005000073746D3332663130785F657874692E6349
:10051000000000000004014070B50446007928B1D5
:10052000042803D06A2129A004F03AFF6079082842
:1005300007D00C2805D0102803D06B2123A004F08D
:100540002FFF2068010D00D118B96C211FA004F005
:1005500027FFA07928B1012803D06D211BA004F04A
:100560001FFF2049A07958B30868226890430860AB
:10057000081D026823689A430260207908440268D3
:1005800023681A430260174B0833186822689043A7
:1005900018601A1D10682568A8431060607910283B
:1005A00005D00844016822681143016070BD1868D5
:1005B000216808431860106821680843106070BD06
:1005C00020790844016822689143EEE77372635C06
:1005D00073746D3332663130785F657874692E6379
:1005E000000000000004014070B50D4604000AD070
:1005F000022C08D0042C06D0062C04D040F2DD11C9
:100600000BA004F0CDFEA400A4F1C04455B1012D0F
:1006100004D04FF4EF7106A004F0C2FE206840F051
:10062000010002E0206808490840206070BD000019
:100630007372635C73746D3332663130785F6673E6
:100640006D632E6300000000FEFF0F002DE9F041F6
:100650000446006848B1022807D0042805D00628BF
:1006600003D0B321A2A004F09BFE606828B1022849
:1006700003D0B4219EA004F093FEA06838B10428F2
:1006800005D0082803D0B52199A004F089FEE068C0
:1006900028B1102803D0B62195A004F081FE20696E
:1006A00030B1B0F5807F03D0B72191A004F078FE7F
:1006B000606930B1B0F5004F03D0B8218CA004F0D0
:1006C0006FFEA06930B1B0F5007F03D0B92188A0DA
:1006D00004F066FEE06930B1B0F5806F03D0BA2156
:1006E00083A004F05DFE206A30B1B0F5006F03D046
:1006F000BB217FA004F054FE606A30B1B0F5805F8A
:1007000003D0BC217AA004F04BFEA06A30B1B0F552
:10071000005F03D0BD2176A004F042FEE06A4FF4F2
:10072000804828B1404503D0BE2171A004F038FEB6
:10073000206B30B1B0F5002F03D0BF216CA004F0C6
:100740002FFE606B00680F2803D9C02168A004F059
:1007500027FE606B40680F2803D9C12164A004F014
:100760001FFE606B8068401EFE2803D9C22160A076
:1007700004F016FE606BC0680F2803D9C3215CA08B
:1007800004F00EFE606B00690F2803D9C42158A045
:1007900004F006FE606B40690F2803D9C52154A000
:1007A00004F0FEFD606B4FF080556E0080694FF0E5
:1007B000405748B1A84207D0B04205D0B84203D054
:1007C000C6214BA004F0ECFDD4E901010843D4E9B3
:1007D00003121143084361690843A1690843E169B1
:1007E0000843216A0843616A0843A16A0843E16A31
:1007F0000843216B084321688900A1F1C0410860CA
:10080000A068082807D120688000A0F1C0400168D6
:1008100041F040010160606BD0E9001241EA021131
:1008200082688389120242EA03421143028A41EA42
:100830000251027D806941EA026101432068800023
:10084000A0F1C0404160E06A40454DD1A06B006816
:100850000F2803D9EA2126A004F0A2FDA06B40686E
:100860000F2803D9EB2122A004F09AFDA06B806829
:10087000401EFE2803D9EC211DA004F091FDA06BC1
:1008800000690F2803D9ED2119A004F089FDA06BA0
:1008900040690F2803D9EE2115A004F081FDA06B5B
:1008A000806948B1A84207D0B04205D0B84203D011
:1008B000EF210FA004F074FDA06BD0E9001241EA13
:1008C00002118268038A120242EA03521143027D36
:1008D000806941EA0261014320688000A0F1C040C4
:1008E000C0F80411BDE8F0816FF07041F4E700003A
:1008F0007372635C73746D3332663130785F667324
:100900006D632E630000000070B50C46050010D02A
:10091000012D0ED0022D0CD0032D0AD0042D08D0AD
:10092000052D06D0062D04D040F265211BA004F051
:1009300037FD14B3012C20D0022C1ED0032C1CD068
:10094000042C1AD0052C18D0062C16D0072C14D045
:10095000082C12D0092C10D00A2C0ED00B2C0CD045
:100960000C2C0AD00D2C08D00E2C06D00F2C04D045
:1009700040F2662109A004F013FDA007010F0D4805
:1009800024F0030318440F2283688A409343836052
:1009900082688D402A43826070BD00007372635C80
:1009A00073746D3332663130785F6770696F2E63B0
:1009B00000000000000001402DE9F04104464648D7
:1009C00000260D46844215D04448844212D0444843
:1009D00084420FD0434884420CD04348844209D01B
:1009E0004248844206D04248844203D0B22141A00A
:1009F00004F0D6FCE87888B104280FD028280DD060
:100A000048280BD0142809D0102807D01C2805D05E
:100A1000182803D0B32137A004F0C2FC288818B9E5
:100A2000B42134A004F0BCFCE87800F00F07C00645
:100A30000CD5A878012807D0022805D0032803D0B8
:100A4000BB212CA004F0ACFCA878074328784FF019
:100A50000F0C10F0FF0F4FF0010E1BD021682A88F9
:100A60000EFA06F00240824210D1B2000CFA02F3F4
:100A700021EA030307FA02F1EA781943282A02D08F
:100A8000482A02D002E0606100E02061761C082E56
:100A9000E5D321602888FF281CD96168002000F177
:100AA00008030EFA03F22B88134093420ED1830001
:100AB0000CFA03F6B14307FA03F6EB783143282B1F
:100AC00000D16261EB78482B00D12261401C0828DC
:100AD000E5D36160BDE8F08100080140000C0140F1
:100AE000001001400014014000180140001C0140AA
:100AF000002001407372635C73746D333266313071
:100B0000785F6770696F2E63000000002DE9F04187
:100B10000D46044601287DD0022C7BD0042C79D0D0
:100B2000082C77D0A4F5A010103873D0A4F5A0102D
:100B300030386FD0A4F5B01040386BD0A4F5B010A9
:100B4000C0387DD0574884427AD05748844277D005
:100B50005648844274D05648844271D055488442E5
:100B60006ED0B4F5805F6BD0B4F5EA1F68D0B4F5F1
:100B7000EB1F65D0B4F5004F62D06FF40010C44293
:100B80005ED0A4F50010801E5AD0A4F50010001FFE
:100B900056D0A4F50010083852D0A4F50010103833
:100BA0004ED0B4F1201F4BD0A4F50010403847D0F0
:100BB0004148844244D04148844241D04048844224
:100BC0003ED0404884423BD03F48844238D0B4F5C0
:100BD000011F35D06FF00040C44231D0C01C8442A8
:100BE0002ED0801C84422BD0001D844228D0374850
:100BF000844225D035481030844221D033483030EB
:100C000084421DD031487030844219D02F48F030D2
:100C1000844200E014E013D02D48844210D02D48C7
:100C200084420DD02C4884420AD02C48844207D0FC
:100C30002B48844204D040F22A212AA004F0B0FBC1
:100C400035B1012D04D040F22B2126A004F0A8FBE1
:100C50002A49002C01DACA6900E04A68630D1E01C6
:100C6000A3B2C4F30157B340C4F30340032F05D02C
:100C7000E6020AD503268640B24307E022F0706000
:100C80004A6822F070624A6002E09A4342F0706063
:100C900005B11843002C02DAC861BDE8F081486054
:100CA000FBE7000000011800000218000003180014
:100CB00000081A00000C1A00000130000002300089
:100CC00000043000001120000020200010000080EF
:100CD00000020080000400800008008000100080F6
:100CE000002000807372635C73746D333266313040
:100CF000785F6770696F2E6300000000000001409C
:100D000070B5044611480D46844216D010488442FE
:100D100013D01048844210D00F4884420DD00F48A1
:100D200084420AD00E48844207D00E48844204D040
:100D300040F279110CA004F033FB25B94FF4BD71DA
:100D400009A004F02DFB656170BD000000080140A2
:100D5000000C014000100140001401400018014047
:100D6000001C0140002001407372635C73746D339A
:100D700032663130785F6770696F2E630000000063
:100D800070B5044611480D46844216D0104884427E
:100D900013D01048844210D00F4884420DD00F4821
:100DA00084420AD00E48844207D00E48844204D0C0
:100DB00040F269110CA004F0F3FA25B94FF4B571B3
:100DC00009A004F0EDFA256170BD000000080140A3
:100DD000000C0140001001400014014000180140C7
:100DE000001C0140002001407372635C73746D331A
:100DF00032663130785F6770696F2E6300000000E3
:100E0000FEE700002DE9F043174F0646002438881E
:100E10007D884543B888A0F5D041043902D1B8791E
:100E2000012807D00021084603F0B8F903F0EAFAD8
:100E30000E4815E00020B8714FF02A09A7F80A9073
:100E40004FF02B08A7F80C80014603F0A7F901200A
:100E5000B871A7F80A80A7F80C90E7E70680641C31
:100E6000AC42FBD3BDE8F0832C0000200008006CEE
:100E70002DE9F04F4A492A232B24898845F2105A3C
:100E80004FF4305B4FF4285E4FF448754FF0F00C90
:100E900049F241394FF4A07745F210364FF4F07221
:100EA00080B13F484FF00108494580F8068007802F
:100EB000A0F802C001D0B1423ED12C25058143816A
:100EC000848157E036484FF00008494580F8068095
:100ED000A0F800C0478006D0A1F5D04CBCF1040CAE
:100EE00001D0B1420CD12C2505814381A1F5D0431D
:100EF0008481043B01D0B14244D10780428041E06B
:100F0000514507D1A0F808B0A0F80AE04FF42C51E1
:100F100081810EE0A1F5C856633E06D022210181F1
:100F200020214181212181812CE02C2101814481DA
:100F300083810280458025E0A1F5D04CBCF1040CF2
:100F400009D051450BD1A0F808B0A0F80AE04FF441
:100F50002C53838121E02C250581448109E0A1F5F2
:100F6000C85CBCF1630C12D022230381212343818E
:100F700020238381A1F5D043043B01D0B14201D1AC
:100F800002804780BDE8F04F002003F033B84FF0F7
:100F90002C0CA0F808C04381848105804280E9E7D9
:100FA0002C0000202DE9F04FDFF8108193464246D7
:100FB0000B46B8F804500C0ADFF804A19189060A20
:100FC0005289A5F513470AF10209413F19D0A5F549
:100FD000A647103F15D0A5F5AA47103F1CD047469D
:100FE000A5F5C85CBE793F883F1A7F1EBCF1630C33
:100FF00027D0A5F5D04CBCF1040C3AD0012E4AD034
:101000004AE0AAF800204A46A9F80060C0B2A9F850
:101010000000AAF800103AE0AAF80020A9F8006041
:10102000521CAAF80020C0B2A9F80000AAF80010CB
:10103000A9F80040491CAAF80010D8B2A9F800008D
:1010400033E006B9B8B2AAF80020050A4A46A9F862
:101050000050C7B2A9F80070A9F80050C0B2A9F8B2
:101060000000AAF80010A9F80040D8B2A9F80000C2
:101070000DE0012E00D1B8B2AAF80020050A4A46B8
:10108000A9F80050C0B2A9F80000AAF80010148016
:10109000D8B2108009E0B8B20146104603F0BCF99E
:1010A000B8F80C00194603F0B7F9B8F80810AAF818
:1010B0000010A9F800B0BDE8F08F00002C0000205F
:1010C000FE07006C2DE9F8431F4D1F468046AB8894
:1010D000089EA3F5D040043802D1A879012807D092
:1010E000A2EB0800401C85B20C46DFF8609028E0B7
:1010F0002B880846991A0024AC713A462A24A3EB9F
:1011000008036C812B27491E5B1EAF8189B29BB2FD
:101110000096FFF7D7FF0120A8716F81AC81BDE871
:10112000F8832146404603F039F803F06BF90020BC
:10113000494602E00E80401C80B2A842FAD3641CEB
:10114000A4B2BC42EDD9EAE72C0000200008006CF4
:101150002DE9F04F01210E029FB0304603F0A8FBAD
:1011600001214FF4B47003F0CDFB0320ADF83C0037
:1011700010248DF83F408DF83E000FA9FE4D284603
:10118000FFF71AFC4CF23370ADF83C0018208DF8D4
:101190003F0003208DF83E000FA9F848FFF70CFC34
:1011A0004FF68070ADF83C0018208DF83F0003200A
:1011B0008DF83E000FA9F248FFF7FEFB41F2010057
:1011C000ADF83C0018208DF83F0003208DF83E005C
:1011D0000FA9EC48FFF7F0FB4FF001080020CDE924
:1011E0001780CDE919801B901C901D901090CDE9BF
:1011F00011081490159006211690CDE90010CDE944
:101200000204139004902102CDE908010690059094
:1012100007908900CDE90A010C9017A80D9010A83D
:101220000E906846FFF712FA01210620FFF7DCF95D
:1012300002212846FFF764FD322004F0EDF8022178
:101240002846FFF79DFD322004F0E6F8002002F06A
:10125000A7FECD4ACD4C49F2413AA51C908046F6F6
:10126000040B45F210514FF6FF79FF2804D348458F
:1012700002D0B0F5134F6FD1D320208002F086FE4C
:10128000908002F083FE908002F080FE09EA002048
:101290004F46908002F07AFE938818439080504524
:1012A0005AD0BF20208002F071FE908002F06EFEC6
:1012B000908002F06BFE908002F068FE07EA00204A
:1012C000908002F063FE938818439080584543D085
:1012D000D420208002F05AFE908002F057FE9080C9
:1012E00002F054FE07EA0020908002F04FFE93883F
:1012F0001843A0F5A6439080103B2DD04FF45A40E0
:10130000208002F043FE90804FF45B40208002F08A
:101310003DFE07EA002090804FF45C40208002F000
:1013200035FE938818439080B0F5004F7ED08842F8
:1013300012D0A120208002F029FE908002F026FE2B
:1013400007EA0020908002F021FE93881843A0F560
:10135000AE439080613B6AD080B2504568D1CF20C7
:10136000208000202880C120288030202880ED2087
:10137000208064202880032028801220288081205B
:101380002880E820208085202880102028807A204E
:101390002880CB202080392028802C202880002005
:1013A00028803420288002202880F72020802020D8
:1013B0002880EA202080002028802880C0202080EB
:1013C0001B202880C120208001202880C52020806B
:1013D000302028802880C7202080B7202880362011
:1013E0002080482028803A20208055202880B12065
:1013F0002080002028801A202880B62020800A2003
:101400002880A2202880F22020800020288026200A
:10141000208001202880E02020800F2028802A20A2
:101420002880282028800820288002E04CE046E020
:101430004CE00E2028800820288054202880A920F5
:101440002880432028800A2028800F202880002020
:101450002880288028802880E12020800020288083
:101460001520288017202880072028801120288018
:10147000062028802B202880562028803C20288089
:1014800005202880102028800F2028803F202880D9
:1014900028800F2028802B20208000202880288072
:1014A000012028803F2028802A20208000202880BA
:1014B00028802880EF2028801120208080E041F6BD
:1014C0006310908002F0DABC918086E058457DD1AF
:1014D00011202080142003F09FFFD02020800720BF
:1014E0002880422028801D202880D12020800020B4
:1014F00028801A20288009202880D22020800120DE
:10150000288022202880C0202080102028803B2096
:101510002880002028800220288011202880C520D3
:10152000208003202880C8202080002028802520BB
:1015300028802120288005202880002028800A205B
:10154000288065202880252028807720288050202A
:1015500028800F20288000202880F820208001206B
:101560002880FE2020800020288002202880202043
:101570002080362020800BE0000C01400014014048
:1015800000180140002001402C000020FE07006CE4
:10159000082028803A202080552028802B20208079
:1015A000002028802880012028803F2028802A20B1
:1015B000208000202880288001202880DF202880AB
:1015C000782003F029FF2920FEE3FFE7A0F5A642DB
:1015D000103A7DD0884241F029844FF47043552160
:1015E000184602F019FF4FF20105AA21284602F021
:1015F00013FF6E1C5221304602F00EFFAF1C082173
:10160000384602F009FF4FF2040A0121504602F069
:1016100003FF0D214FF4304002F0FEFE0D214BF28E
:10162000010002F0F9FE0D214BF2020002F0F4FE7F
:101630004FF4364B3421584602F0EEFE34214BF283
:10164000016002F0E9FE34214BF2026002F0E4FE98
:101650000D214FF4314002F0DFFE0D214BF201105D
:1016600002F0DAFE0D214BF2021002F0D5FE342119
:101670004FF4374002F0D0FE34214BF2017002F0FB
:10168000CBFE34214BF2027002F0C6FE00214FF473
:10169000324002F0C1FE00214BF2012002F0BCFEFC
:1016A00000214BF2022002F0B7FE24214FF4384013
:1016B00002F0B2FE24214BF6010002F0ADFE24211F
:1016C0004BF6020002F0A8FE01214FF43F4000E07B
:1016D000FEE302F0A1FE0F214FF4334002F09CFE26
:1016E0000F214BF2013002F097FE0F214BF2023036
:1016F00002F092FE34214FF4394002F08DFE342185
:101700004BF6011002F088FE34214BF6021002F075
:1017100083FE08214FF4354002F07EFE08214BF293
:10172000015002F079FE08214BF2025002F074FEE3
:1017300003214FF4424002F06FFE24214FF43A405F
:1017400002F06AFE24214BF6012002F065FE2421FE
:101750004BF6022002F060FE00214FF43C4002F004
:101760005BFE78214BF6014002F056FE00214BF65D
:10177000024002F051FE00214FF43D4002F04CFEC9
:1017800078214BF6015002F047FE00214BF6025043
:1017900002F042FE00214FF43E4002F03DFE642183
:1017A0004BF6016002F038FE00214FF4514002F088
:1017B00033FE33214DF2011002F02EFE00214DF2D6
:1017C000021002F029FE34214DF2031002F024FE33
:1017D00000214DF2041002F01FFE3A214DF20510D7
:1017E00002F01AFE00214DF2061002F015FE4A2109
:1017F0004DF2071002F010FE00214DF2081002F029
:101800000BFE5C214DF2091002F006FE00214DF2A4
:101810000A1002F001FE81214DF20B1002F0FCFDD6
:1018200000214DF20C1002F0F7FDA6214DF20D1033
:1018300002F0F2FD00214DF20E1002F0EDFDE52167
:101840004DF20F1002F0E8FD01214DF2101002F0F0
:10185000E3FD13214DF2111002F0DEFD01214DF2E6
:10186000121002F0D9FD54214DF2131002F0D4FDF4
:1018700001214DF2141002F0CFFD82214DF215101E
:1018800002F0CAFD01214DF2161002F0C5FDCA2179
:101890004DF2171002F0C0FD02214DF2181002F0B7
:1018A000BBFD00214DF2191002F0B6FD02214DF2F0
:1018B0001A1002F0B1FD01214DF21B1002F0ACFD37
:1018C00002214DF21C1002F0A7FD34214DF21D1033
:1018D00002F0A2FD02214DF21E1002F09DFD6721D3
:1018E0004DF21F1002F098FD02214DF2201002F07F
:1018F00093FD84214DF2211002F08EFD02214DF264
:10190000221002F089FDA4214DF2231002F084FD83
:1019100002214DF2241002F07FFDB7214DF2251077
:1019200002F07AFD02214DF2261002F075FDCF2162
:101930004DF2271002F070FD02214DF2281002F046
:101940006BFDDE214DF2291002F066FD02214DF201
:101950002A1002F061FDF2214DF22B1002F05CFD25
:1019600002214DF22C1002F057FDFE214DF22D10F8
:1019700002F052FD03214DF22E1002F04DFD102118
:101980004DF22F1002F048FD03214DF2301002F00D
:1019900043FD33214DF2311002F03EFD03214DF2A3
:1019A000321002F039FD6D214DF2331002F034FD9A
:1019B00000214FF4524002F02FFD33214DF201205F
:1019C00002F02AFD00214DF2022002F025FD342113
:1019D0004DF2032002F020FD00214DF2042002F020
:1019E0001BFD3A214DF2052002F016FD00214DF2BB
:1019F000062002F011FD4A214DF2072002F00CFDF5
:101A000000214DF2082002F007FD5C214DF2092073
:101A100002F002FD00214DF20A2002F0FDFC8121BE
:101A20004DF20B2002F0F8FC00214DF20C2002F0E8
:101A3000F3FCA6214DF20D2002F0EEFC00214DF248
:101A40000E2002F0E9FCE5214DF20F2002F0E4FC4B
:101A500001214DF2102002F0DFFC13214DF2112084
:101A600002F0DAFC01214DF2122002F0D5FC5421E3
:101A70004DF2132002F0D0FC01214DF2142002F0AF
:101A8000CBFC82214DF2152002F0C6FC01214DF263
:101A9000162002F0C1FCCA214DF2172002F0BCFC56
:101AA00002214DF2182002F0B7FC00214DF219205E
:101AB00002F0B2FC02214DF21A2002F0ADFC01212D
:101AC0004DF21B2002F0A8FC02214DF21C2002F076
:101AD000A3FC34214DF21D2002F09EFC02214DF2A8
:101AE0001E2002F099FC67214DF21F2002F094FCA9
:101AF00002214DF2202002F08FFC84214DF22120A2
:101B000002F08AFC02214DF2222002F085FCA42181
:101B10004DF2232002F080FC02214DF2242002F03D
:101B20007BFCB7214DF2252002F076FC02214DF21C
:101B3000262002F071FCCF214DF2272002F06CFC30
:101B400002214DF2282002F067FCDE214DF229200F
:101B500002F062FC02214DF22A2002F05DFCF2212B
:101B60004DF22B2002F058FC02214DF22C2002F005
:101B700053FCFE214DF22D2002F04EFC03214DF2CC
:101B80002E2002F049FC10214DF22F2002F044FCDF
:101B900003214DF2302002F03FFC33214DF2312081
:101BA00002F03AFC03214DF2322002F035FC6D21A7
:101BB0004DF2332002F030FC00214FF4534002F08C
:101BC0002BFC33214DF2013002F026FC00214DF2B6
:101BD000023002F021FC34214DF2033002F01CFCF3
:101BE00000214DF2043002F017FC3A214DF205308D
:101BF00002F012FC00214DF2063002F00DFC4A21E9
:101C00004DF2073002F008FC00214DF2083002F0DE
:101C100003FC5C214DF2093002F0FEFB00214DF285
:101C20000A3002F0F9FB81214DF20B3002F0F4FB97
:101C300000214DF20C3002F0EFFBA6214DF20D30E9
:101C400002F0EAFB00214DF20E3002F0E5FBE52147
:101C50004DF20F3002F0E0FB01214DF2103002F0A6
:101C6000DBFB13214DF2113002F0D6FB01214DF2C6
:101C7000123002F0D1FB54214DF2133002F0CCFBB4
:101C800001214DF2143002F0C7FB82214DF21530D4
:101C900002F0C2FB01214DF2163002F0BDFBCA2159
:101CA0004DF2173002F0B8FB02214DF2183002F06D
:101CB000B3FB00214DF2193002F0AEFB02214DF2D0
:101CC0001A3002F0A9FB01214DF21B3002F0A4FBF7
:101CD00002214DF21C3002F09FFB34214DF21D30E9
:101CE00002F09AFB02214DF21E3002F095FB6721B3
:101CF0004DF21F3002F090FB02214DF2203002F035
:101D00008BFB84214DF2213002F086FB02214DF243
:101D1000223002F081FBA4214DF2233002F07CFB43
:101D200002214DF2243002F077FBB7214DF225302D
:101D300002F072FB02214DF2263002F06DFBCF2142
:101D40004DF2273002F068FB02214DF2283002F0FC
:101D500063FBDE214DF2293002F05EFB02214DF2E1
:101D60002A3002F059FBF2214DF22B3002F054FBE5
:101D700002214DF22C3002F04FFBFE214DF22D30AE
:101D800002F04AFB03214DF22E3002F045FB1021F8
:101D90004DF22F3002F040FB03214DF2303002F0C3
:101DA0003BFB33214DF2313002F036FB03214DF283
:101DB000323002F031FB6D214DF2333002F02CFB5A
:101DC00000214FF4544000E084E302F025FB33216E
:101DD0004DF2014002F020FB00214DF2024002F0E2
:101DE0001BFB34214DF2034002F016FB00214DF2A3
:101DF000044002F011FB3A214DF2054002F00CFBC9
:101E000000214DF2064002F007FB4A214DF2074047
:101E100002F002FB00214DF2084002F0FDFA5C21C5
:101E20004DF2094002F0F8FA00214DF20A4002F0AA
:101E3000F3FA81214DF20B4002F0EEFA00214DF24F
:101E40000C4002F0E9FAA6214DF20D4002F0E4FA4E
:101E500000214DF20E4002F0DFFAE5214DF20F4075
:101E600002F0DAFA01214DF2104002F0D5FA132106
:101E70004DF2114002F0D0FA01214DF2124002F071
:101E8000CBFA54214DF2134002F0C6FA01214DF273
:101E9000144002F0C1FA82214DF2154002F0BCFA62
:101EA00001214DF2164002F0B7FACA214DF2174057
:101EB00002F0B2FA02214DF2184002F0ADFA002110
:101EC0004DF2194002F0A8FA02214DF21A4000E04A
:101ED00003E302F0A1FA01214DF21B4002F09CFA4B
:101EE00002214DF21C4002F097FA34214DF21D40C0
:101EF00002F092FA02214DF21E4002F08DFA6721A3
:101F00004DF21F4002F088FA02214DF2204002F00B
:101F100083FA84214DF2214002F07EFA02214DF233
:101F2000224002F079FAA4214DF2234002F074FA23
:101F300002214DF2244002F06FFAB7214DF2254004
:101F400002F06AFA02214DF2264002F065FACF2132
:101F50004DF2274002F060FA02214DF2284002F0D3
:101F60005BFADE214DF2294002F056FA02214DF2D1
:101F70002A4002F051FAF2214DF22B4002F04CFAC5
:101F800002214DF22C4002F047FAFE214DF22D4085
:101F900002F042FA03214DF22E4002F03DFA1021E8
:101FA0004DF22F4002F038FA03214DF2304002F09A
:101FB00033FA33214DF2314002F02EFA03214DF273
:101FC000324002F029FA6D214DF2334002F024FA3A
:101FD00000214FF4554002F01FFA33214DF2015019
:101FE00002F01AFA00214DF2025002F015FA3421E3
:101FF0004DF2035002F010FA00214DF2045002F0AD
:102000000BFA3A214DF2055002F006FA00214DF28A
:10201000065002F001FA4A214DF2075002F0FCF995
:1020200000214DF2085002F0F7F95C214DF2095001
:1020300002F0F2F900214DF20A5002F0EDF981218F
:102040004DF20B5002F0E8F900214DF20C5002F075
:10205000E3F9A6214DF20D5002F0DEF900214DF218
:102060000E5002F0D9F9E5214DF20F5002F0D4F9EB
:1020700001214DF2105002F0CFF913214DF2115011
:1020800002F0CAF901214DF2125002F0C5F95421B3
:102090004DF2135002F0C0F901214DF2145002F03C
:1020A000BBF982214DF2155002F0B6F901214DF233
:1020B000165002F0B1F9CA214DF2175002F0ACF9F6
:1020C00002214DF2185002F0A7F900214DF21950EB
:1020D00002F0A2F902214DF21A5002F09DF90121FD
:1020E0004DF21B5002F098F902214DF21C5002F003
:1020F00093F934214DF21D5002F08EF902214DF278
:102100001E5002F089F967214DF21F5002F084F948
:1021100002214DF2205002F07FF984214DF221502E
:1021200002F07AF902214DF2225002F075F9A42151
:102130004DF2235002F070F902214DF2245002F0CA
:102140006BF9B7214DF2255002F066F902214DF2EC
:10215000265002F061F9CF214DF2275002F05CF9D0
:1021600002214DF2285002F057F9DE214DF229509C
:1021700002F052F902214DF22A5002F04DF9F221FB
:102180004DF22B5002F048F902214DF22C5002F092
:1021900043F9FE214DF22D5002F03EF903214DF29C
:1021A0002E5002F039F910214DF22F5002F034F97F
:1021B00003214DF2305002F02FF933214DF231500E
:1021C00002F02AF903214DF2325002F025F96D2177
:1021D0004DF2335002F020F900214FF4564002F046
:1021E0001BF933214DF2016002F016F900214DF286
:1021F000026002F011F934214DF2036002F00CF993
:1022000000214DF2046002F007F93A214DF2056019
:1022100002F002F900214DF2066002F0FDF84A21B9
:102220004DF2076002F0F8F800214DF2086002F06C
:10223000F3F85C214DF2096002F0EEF800214DF256
:102240000A6002F0E9F881214DF20B6002F0E4F837
:1022500000214DF20C6002F0DFF8A6214DF20D6076
:1022600002F0DAF800214DF20E6002F0D5F8E52117
:102270004DF20F6002F0D0F801214DF2106002F033
:10228000CBF813214DF2116002F0C6F801214DF296
:10229000126002F0C1F854214DF2136002F0BCF854
:1022A00001214DF2146002F0B7F882214DF2156061
:1022B00002F0B2F801214DF2166002F0ADF8CA2129
:1022C0004DF2176002F0A8F802214DF2186002F0FA
:1022D000A3F800214DF2196002F09EF802214DF2A0
:1022E0001A6002F099F801214DF21B6002F094F897
:1022F00002214DF21C6002F08FF834214DF21D6076
:1023000002F08AF802214DF21E6002F085F8672182
:102310004DF21F6002F080F802214DF2206002F0C1
:102320007BF884214DF2216002F076F802214DF213
:10233000226002F071F8A4214DF2236002F06CF8E3
:1023400002214DF2246002F067F8B7214DF22560BA
:1023500002F062F802214DF2266002F05DF8CF2112
:102360004DF2276002F058F802214DF2286002F089
:1023700053F8DE214DF2296002F04EF802214DF2B1
:102380002A6002F049F8F2214DF22B6002F044F885
:1023900002214DF22C6002F03FF8FE214DF22D603B
:1023A00002F03AF803214DF22E6002F035F81021C8
:1023B0004DF22F6002F030F803214DF2306002F050
:1023C0002BF833214DF2316002F026F803214DF253
:1023D000326002F021F86D214DF2336002F01CF8FA
:1023E0005521184602F018F8AA21284602F014F8E0
:1023F0005221304602F010F80821384602F00CF85D
:102400000021504602F008F8CC214FF4314002F090
:1024100003F800214BF2011001F0FEFF05215846A0
:1024200001F0FAFF70214FF4374001F0F5FF702101
:102430004BF2017001F0F0FF01214FF4384001F040
:10244000EBFF03214BF6010001F0E6FF03214BF601
:10245000020001F0E1FF03214BF6030001F0DCFF75
:1024600002214FF43C4001F0D7FF00214BF6014020
:1024700001F0D2FF00214BF6024001F0CDFFD02148
:102480004FF4494001F0C8FF02214CF6011001F061
:10249000C3FF50214CF6021001F0BEFF50214CF654
:1024A000031001F0B9FF50214CF6041001F0B4FF05
:1024B00000214FF4545001F0AFFF55214FF4685004
:1024C00001F0AAFF4FF488502080782002F0BEFF70
:1024D0004FF42450208001F04BBDED2020800120DE
:1024E0002880FE202880EE202080DE2028802120E9
:1024F0002880F120208001202880DF2020801020EB
:102500002880C42020808F202880C62020800020A2
:102510002880E220288028802880BF202080AA20D0
:102520002880B02020800D202880002028800D20C9
:102530002880002028801120288000202880192051
:1025400028800020288021202880002028802D201D
:102550002880002028803D202880002028805D20C1
:102560002880002028805D20288000202880B1203D
:10257000208080202880002028808B202880002038
:1025800028809620288000202880B22020800020EB
:10259000288028800220288000202880032028808E
:1025A00000202880B32020800020288028802880D8
:1025B00028802880288028802880288028802880DB
:1025C00028802880288028802880288028802880CB
:1025D00028802880288028802880B42020808B2094
:1025E0002880002028809620288000202880A12094
:1025F000288000202880B52020800220288000200C
:1026000028800320288000202880042028800020A3
:102610002880B6202080002028802880B7202080B5
:102620000020288028803F202880002028805E20ED
:1026300028800020288064202880002028808C208A
:10264000288000202880AC20288000202880DC20E2
:10265000288000202880702028800020288090205A
:10266000288000202880EB20288000202880DC2083
:10267000288000202880B820208000202880288002
:10268000288028802880288028802880BA202080E0
:10269000242028800020288028802880C1202080B5
:1026A0002020288000202880542028800020288096
:1026B000FF20288000202880C22020800A20288037
:1026C000002028800420288000202880C32020802B
:1026D0003C202880002028803A2028800020288064
:1026E000392028800020288037202880002028805A
:1026F0003C20288000202880362028800020288048
:1027000032202880002028802F2028800020288048
:102710002C20288000202880292028800020288044
:10272000262028800020288024202880002028803F
:102730002420288000202880232028800020288032
:102740003C202880002028803620288000202880F7
:1027500032202880002028802F20288000202880F8
:102760002C202880002028802920288000202880F4
:1027700026202880002028802420288000202880EF
:1027800024202880002028802320288000202880E2
:10279000C4202080622028800020288005202880F6
:1027A000002028808420288000202880F020288095
:1027B000002028801820288000202880A42028803D
:1027C0000020288018202880002028805020288081
:1027D000002028800C2028800020288017202880B6
:1027E000002028809520288000202880F320288041
:1027F00000202880E620288000202880C520208016
:102800003220288000202880442028800020288032
:1028100065202880002028807620288000202880BD
:102820008820288000202880C62020802020288022
:102830000020288017202880002028800120288060
:1028400000202880C7202080002028802880288021
:102850002880C82020800020288028802880288088
:10286000C920208000202880288028802880288077
:102870002880288028802880288028802880288018
:10288000288028802880E0202080162028800020B2
:1028900028801C20288000202880212028800020DB
:1028A000288036202880002028804620288000208C
:1028B0002880522028800020288064202880002042
:1028C00028807A202880002028808B2028800020E3
:1028D00028809920288000202880A8202880002097
:1028E0002880B920288000202880C420288000204B
:1028F0002880CA20288000202880D220288000201C
:102900002880D920288000202880E02028800020EE
:102910002880F320288000202880E12020801620B5
:102920002880002028801C20288000202880222049
:1029300028800020288036202880002028804520FC
:1029400028800020288052202880002028806420B1
:102950002880002028807A202880002028808B2052
:102960002880002028809920288000202880A82006
:10297000288000202880B920288000202880C420BA
:10298000288000202880CA20288000202880D2208B
:10299000288000202880D820288000202880E0205F
:1029A000288000202880F320288000202880E22032
:1029B000208005202880002028800B2028800020EF
:1029C00028801B2028800020288034202880002098
:1029D000288044202880002028804F202880002044
:1029E00028806120288000202880792028800020ED
:1029F0002880882028800020288097202880002098
:102A00002880A620288000202880B7202880002049
:102A10002880C220288000202880C720288000200D
:102A20002880D120288000202880D62028800020DF
:102A30002880DD20288000202880F32028800020A6
:102A40002880E320208005202880002028800A207C
:102A50002880002028801C20288000202880332007
:102A600028800020288044202880002028805020B2
:102A7000288000202880622028800020288078205C
:102A80002880002028808820288000202880972007
:102A9000288000202880A620288000202880B720B9
:102AA000288000202880C220288000202880C7207D
:102AB000288000202880D120288000202880D52050
:102AC000288000202880DD20288000202880F32016
:102AD000288000202880E4202080012028800020F9
:102AE00028800120288000202880022028800020C3
:102AF00028802A202880002028803C202880002050
:102B000028804B202880002028805D2028800020FD
:102B1000288074202880002028808420288000209D
:102B200028809320288000202880A2202880002050
:102B30002880B320288000202880BE202880002004
:102B40002880C420288000202880CD2028800020D4
:102B50002880D320288000202880DD2028800020A5
:102B60002880F320288000202880E5202080002075
:102B70002880288028802880022028800020288023
:102B800029202880002028803C20288000202880C0
:102B90004B202880002028805D202880002028806D
:102BA000742028800020288084202880002028800D
:102BB0009320288000202880A220288000202880C0
:102BC000B320288000202880BE2028800020288074
:102BD000C420288000202880CD2028800020288044
:102BE000D320288000202880DC2028800020288016
:102BF000F320288000202880E620208011202880D3
:102C0000002028803420288000202880562028801A
:102C100000202880762028800020288077202880A7
:102C20000020288066202880002028808820288096
:102C3000002028809920288000202880BB20288020
:102C40000020288099202880002028806620288065
:102C500000202880552028800020288055202880AA
:102C600000202880452028800020288043202880BC
:102C7000002028804420288000202880E720208011
:102C8000322028800020288055202880002028809D
:102C90007620288000202880662028800020288038
:102CA0006720288000202880672028800020288036
:102CB00087202880002028809920288000202880D4
:102CC000BB20288000202880992028800020288090
:102CD0007720288000202880442028800020288019
:102CE000562028800020288023202880002028804B
:102CF000332028800020288045202880002028803C
:102D0000E82020800020288028809920288000202A
:102D10002880872028800020288088202880002084
:102D200028807720288000202880662028800020A6
:102D300028808820288000202880AA202880002041
:102D40002880BB202880002028809920288000200F
:102D50002880662028800020288055202880002098
:102D600028805520288000202880442028800020AA
:102D7000288044202880002028805520288000209A
:102D80002880E9202080AA20288000202880288010
:102D900028802080AA202880CF2020800020288022
:102DA00028802880288028802880288028802880E3
:102DB00028802880288028802880288028802880D3
:102DC000F0202080002028805020288000202880AB
:102DD00028802880F320208000202880F92020806F
:102DE0000620288010202880292028800020288084
:102DF0003A2020805520288011202080642002F075
:102E00000BFB2920208035202080002028805120A5
:102E10002080FF202880532020802C2028805520CF
:102E20002080822028802C20FFF754BBA0F513417E
:102E30004FF4E06A4FF4274B25392ED0A0F513410B
:102E400040F2077728397DD0A0F513414FF4887BF5
:102E5000203978D0A0F51341313975D0A0F5A841BB
:102E6000083972D0A0F5A8514FF4407B05396DD0D8
:102E7000A0F5354105396AD0A0F54541053967D03F
:102E8000A0F58A4131397CD0A0F58A41353979D015
:102E9000A0F5C851633976D0FDE347F6F001E5208F
:102EA00001F0BAFA3146012001F0B6FA514602208B
:102EB00001F0B2FA41F23001032001F0ADFA002135
:102EC000042001F0A9FA40F20221082001F0A4FA3E
:102ED0000021092001F0A0FA00210A2001F09CFA4B
:102EE00000210C2001F098FA00210D2001F094FA45
:102EF00000210F2001F090FA0021102001F08CFA3F
:102F00000721112001F088FA0021122001F084FA33
:102F10000021132001F080FA0021072001F07CFA43
:102F200041F29061102001F077FA40F22721112040
:102F300001F072FA9D21122001F06EFA4FF4C8518F
:102F4000132006E082E03FE1E5E1BCE258E3FDE367
:102F5000FDE301F061FA2521292001F05DFA0D2140
:102F60002B2001F059FA0721302001F055FA40F2E8
:102F70000331312001F050FA0321322001F04CFAE4
:102F800002E0E5E3E5E3E5E340F20621352001F068
:102F900043FA0821362001F03FFA40F2064137207B
:102FA00001F03AFA4FF44171382001F035FA072167
:102FB000392001F031FA40F202613C2001F02CFA94
:102FC00008213D2001F028FA0021502001F024FAC8
:102FD000EF21512001F020FA0021522001F01CFACB
:102FE00040F23F11532001F017FA5946602001F0DA
:102FF00013FA0121612001F00FFA00216A2001F08B
:103000000BFA0021802001F007FA0021812001F055
:1030100003FA0021822001F0FFF90021832001F052
:10302000FBF90021842001F0F7F90021852001F04F
:10303000F3F91021902001F0EFF94FF4C0619220D4
:1030400001F0EAF940F233110720EEE341F28F017B
:10305000EC2001F0E1F941F23421EF2001F0DCF93C
:103060003146012001F0D8F95146022001F0D4F98F
:1030700041F23001032001F0CFF90021042001F0DA
:10308000CBF940F20221082001F0C6F90021092005
:1030900001F0C2F900210A2001F0BEF901210C2043
:1030A00001F0BAF900210D2001F0B6F900210F203E
:1030B00001F0B2F90021102001F0AEF90721112032
:1030C00001F0AAF90021122001F0A6F90021132035
:1030D00001F0A2F90121072001F09EF9322002F04F
:1030E0009BF941F29041102001F096F940F227211E
:1030F000112001F091F9322002F08EF98A2112207C
:1031000001F08AF9322002F087F94FF4D0511320F0
:1031100001F082F90621292001F07EF90D212B20F2
:1031200001F07AF9322002F077F90021202001F035
:1031300073F90021212001F06FF9322002F06CF9BF
:103140000021302001F068F940F20461312001F0E3
:1031500063F940F20531322001F05EF9002135209B
:1031600001F05AF940F60941362001F055F94FF4C3
:103170000171372001F050F940F20131382001F09F
:103180004BF93946392001F047F900213C2001F084
:1031900043F940F60A213D2001F03EF9322002F0C9
:1031A0003BF90021502001F037F9EF21512001F0C7
:1031B00033F90021522001F02FF940F23F11532042
:1031C00001F02AF9594653E10021084601F024F99B
:1031D0003146012001F020F95146022001F01CF98E
:1031E00041F23001032001F017F90021042001F021
:1031F00013F940F20221082001F00EF90021092004
:1032000001F00AF900210A2001F006F901210C2041
:1032100001F002F900210D2001F0FEF800210F203D
:1032200001F0FAF8322002F0F7F840F2011107201D
:1032300001F0F2F8322002F0EFF84FF4865110203E
:1032400001F0EAF80721112001F0E6F85B46594643
:10325000122001F0E1F84FF43061132001F0DCF8A6
:103260000021292001F0D8F844F210012B2001F0B0
:10327000D3F80021502001F0CFF8EF21512001F0C8
:10328000CBF80021522001F0C7F840F23F11532043
:1032900001F0C2F84FF41C51602001F0BDF801218B
:1032A000612001F0B9F800216A2001F0B5F8002191
:1032B000802001F0B1F80021812001F0ADF800215B
:1032C000822001F0A9F80021832001F0A5F8002157
:1032D000842001F0A1F80021852001F09DF8102143
:1032E000902001F099F80021922001F095F8012139
:1032F000932001F091F81946952001F08DF80021F6
:10330000972001F089F80021982001F085F840F21B
:103310007311072087E341F21401E72001F07CF8E4
:103320003146012001F078F84FF40071022001F0DD
:1033300073F841F23801032001F06EF840F20221E7
:10334000082001F069F80021092001F065F800214A
:103350000A2001F061F800210C2001F05DF8002145
:103360000D2001F059F800210F2001F055F800213F
:10337000102001F051F80721112001F04DF8002133
:10338000122001F049F80021132001F045F8C8206F
:1033900002F042F841F29061102001F03DF840F255
:1033A0002721112001F038F8322002F035F80C21E5
:1033B000122001F031F8322002F02EF84FF40061B3
:1033C000132001F029F81121292001F025F80B2103
:1033D0002B2001F021F8322002F01EF800212020DD
:1033E00001F01AF840F23F131946212001F014F8B9
:1033F0000021302001F010F84FF483742146312071
:1034000001F00AF80021322001F006F84FF40171B2
:10341000352001F001F841F20A61362000F0FCFF8E
:103420003946372000F0F8FF2146382000F0F4FF3D
:103430003946392000F0F0FF40F202413C2000F014
:10344000EBFF40F60F413D2000F0E6FF0021502049
:1034500000F0E2FFEF21512000F0DEFF00215220BA
:1034600000F0DAFF1946532000F0D6FF4FF41C514C
:10347000602000F0D1FF0121612000F0CDFF00218C
:103480006A2000F0C9FF0021802000F0C5FF002164
:10349000812000F0C1FF0021822000F0BDFF00214B
:1034A000832000F0B9FF0021842000F0B5FF002147
:1034B000852000F0B1FF1021902000F0ADFF4FF407
:1034C000C0619220FEE33146012000F0A5FF514685
:1034D000022000F0A1FF41F23001032000F09CFF28
:1034E0000021042000F098FF40F20721082000F09E
:1034F00093FF0021092000F08FFF00210A2000F037
:103500008BFF00210C2000F087FF00210D2000F030
:1035100083FF00210F2000F07FFF142001F07CFFCB
:1035200041F2B061102000F077FF0121112000F07E
:1035300073FF0121172000F06FFF4FF49C711220E0
:1035400000F06AFF4FF40061132000F065FF0921CD
:10355000292000F061FF09212A2000F05DFF0021F1
:10356000A42000F059FF0021502000F055FFEF216A
:10357000512000F051FF0021522000F04DFF40F299
:103580003F11532000F048FF4FF41C51602000F021
:1035900043FF0121612000F03FFF00216A2000F07D
:1035A0003BFF0021802000F037FF0021812000F048
:1035B00033FF0021822000F02FFF0021832000F044
:1035C0002BFF0021842000F027FF0021852000F040
:1035D00023FF1321902000F01FFF0021922000F014
:1035E0001BFF0321932000F017FF5946952000F0A0
:1035F00013FF40F27311072000F00EFF322011E19B
:103600000021072000F008FF322001F005FF4FF4F1
:103610008E71122000F000FF0121A42000F0FCFEBA
:103620000F21082000F0F8FE08210A2000F0F4FE27
:1036300008210D2000F0F0FE3946302000F0ECFEAD
:103640000721312000F0E8FE40F20361322000F053
:10365000E3FE54465146332000F0DEFE40F20221E4
:10366000342000F0D9FE0221352000F0D5FE41F6CD
:103670000F71362000F0D0FE3946372000F0CCFE26
:103680000021382000F0C8FE0021392000F0C4FEDF
:1036900039463A2000E048E300F0BEFE00213B201E
:1036A00000F0BAFE07213C2000F0B6FE00213D20CC
:1036B00000F0B2FE322001F0AFFE0121072000F041
:1036C000ABFE0121172000F0A7FE322001F0A4FE7E
:1036D0004FF4BD51102000F09FFE40F21721112041
:1036E00000F09AFE4FF48F71122000F095FE4FF417
:1036F0007061132000F090FE00212A2000F08CFE63
:103700000A21292000F088FE4FF49F71122000F05A
:1037100083FE0021502000F07FFEEF21512000F0B9
:103720007BFE0021522000F077FE40F23F11532033
:1037300000F072FE4FF41C51602000F06DFE01217C
:10374000612000F069FE00216A2004E06EE06BE178
:1037500034E2EBE292E300F05FFE0021802000F013
:103760005BFE0021812000F057FE0021822000F046
:1037700053FE0021832000F04FFE0021842000F042
:103780004BFE0021852000F047FE1321902000F021
:1037900043FE5946922000F03FFE0521932000F0A1
:1037A0003BFE0021952000F037FE0021972000F01D
:1037B00033FE0021982000F02FFE3146012000F05A
:1037C0002BFE2146022000F027FE41F238010320A3
:1037D00000F022FE0021042000F01EFE00210C203B
:1037E00000F01AFE00210F2000F016FE002120201C
:1037F00000F012FE0021212000F00EFE2121072002
:1038000000F00AFE142001F007FE6121072000F0FD
:1038100003FE142001F000FE40F27311072000F0B7
:10382000FBFD142001F0F8FDA2E3F8E000210846BA
:1038300000F0F2FD0021084600F0EEFD00210846F0
:1038400000F0EAFD0021084600F0E6FD0121A42079
:1038500000F0E2FD142001F0DFFD4FF41C5421467E
:10386000602000F0D9FD40F202252946082000F032
:10387000D3FD4FF40571302000F0CEFD43F21571F9
:10388000312000F0C9FD40F20461322000F0C4FD97
:1038900040F61661332000F0BFFD42F211213420C2
:1038A00000F0BAFD4FF4A851352000F0B5FD48F204
:1038B0000751362000F0B0FD41F20741372000F0FB
:1038C000ABFD41F20341382000F0A6FD2021392054
:1038D00000F0A2FD1A21902000F09EFD0021102092
:1038E00000F09AFD0721112000F096FD0021122022
:1038F00000F092FD0021132000F08EFD142001F055
:103900008BFD4FF4E661102000F086FD40F2371188
:10391000112000F081FD142001F07EFD4FF4DC71D8
:10392000122000F079FD142001F076FD4FF4706153
:10393000132000F071FD80212A2000F06DFD482148
:10394000292000F069FD142001F066FD31460120B8
:1039500000F062FD5146022000F05EFD41F23801A8
:10396000032000F059FD2946082000F055FD0021F4
:103970000A2000F051FD00210C2000F04DFD002137
:103980000D2000F049FD30210E2000F045FD002102
:10399000502000F041FDEF21512000F03DFD0021BD
:1039A000522000F039FD40F23F11532000F034FD69
:1039B0002146602000F030FD0121612000F02CFD47
:1039C00000216A2000F028FD1121902000F024FD44
:1039D0004FF4C061922000F01FFD40F2024193209D
:1039E00000F01AFD0221942000F016FD142001F0D1
:1039F00013FD0121072000F00FFD142001F00CFD44
:103A00006121072000F008FD40F27311072000F04B
:103A100003FD0021202000F0FFFC0021212000F008
:103A2000FBFC222100207EE10021084600F0F4FC8E
:103A30000021084600F0F0FC142001F0EDFC00210C
:103A4000084600F0E9FC0021084600F0E5FC0021F2
:103A5000084600F0E1FC0021084600F0DDFC0121F1
:103A6000A42000F0D9FC142001F0D6FC4FF41C5126
:103A7000602000F0D1FC40F60601082000F0CCFCEC
:103A800040F203731946302000F0C6FC01213120BA
:103A900000F0C2FC0421322000F0BEFC4FF4817122
:103AA000332000F0B9FC5C465946342000F0B4FCE9
:103AB00040F20311352000F0AFFC1F21362000F04A
:103AC000ABFC1946372000F0A7FC0121382000F09C
:103AD000A3FC0421392000F09FFC1521902000F068
:103AE0009BFC4FF48261102000F096FC40F24721CD
:103AF000112000F091FC4FF4DE71122000F08CFCDC
:103B00004FF46061132000F087FC782001F084FC02
:103B10003146012000F080FC4FF40071022000F0DB
:103B20007BFC41F23001032000F076FC08210A20E2
:103B300000F072FC00210C2000F06EFC20210E2011
:103B400000F06AFC00210F2000F066FC002120201C
:103B500000F062FC0021212000F05EFC3D212A20C3
:103B600000F05AFC142001F057FC2D21292000F010
:103B700053FC0021502000F04FFC4DF2EF0151208A
:103B800000F04AFC0021522000F046FC40F23F11B8
:103B9000532000F041FC0021612000F03DFC002199
:103BA0006A2000F039FC2146922000F035FC052106
:103BB000932000F031FC3146FFF7ABBB0121002020
:103BC00000F02AFC0A2001F027FC41F228611020B5
:103BD00000F022FC0E21122000F01EFC40F63921DC
:103BE000132000F019FC0A2001F016FC40211120DE
:103BF00000F012FC5021152000F00EFC0A2001F00C
:103C00000BFC1E21122000F007FC0A2001F004FC2E
:103C10004FF4B151102000F0FFFB42F63921132080
:103C200000F0FAFB0A2001F0F7FB3146012000F01A
:103C3000F3FB5946022000F0EFFB41F2380103206C
:103C400000F0EAFB40F20221082000F0E5FB082129
:103C50000A2000F0E1FB0021302000F0DDFB40F203
:103C60000241312000F0D8FB4FF48371322000F084
:103C7000D3FB40F20351332000F0CEFB4FF48271AE
:103C8000342000F0C9FB40F20131352000F0C4FBC4
:103C90003946362000F0C0FB40F20531372000F0F5
:103CA000BBFB4FF40271382000F0B6FB40F60B71FD
:103CB000392000F0B1FB0221412000F0ADFB4FF4B0
:103CC0001C5100E0D5E0602000F0A6FB012161203E
:103CD00000F0A2FB4FF40471902000F09DFB4FF424
:103CE0008571922000F098FB0421932000F094FB52
:103CF0003146A02000F090FB0121072000F08CFB52
:103D00002121072000F088FB2321072000F084FBFD
:103D10003321072000F080FB40F23311072000F030
:103D20007BFB0021A02000F077FB21E13021152052
:103D300000F072FB10219A2000F06EFB2021112070
:103D400000F06AFB43F22841102000F065FB0221DD
:103D5000122000F061FB41F23801132000F05CFBFF
:103D6000282001F059FB1221084600F055FB2820BD
:103D700001F052FB43F22041102000F04DFB43F2D2
:103D80003801132000F048FB462001F045FB0021DC
:103D9000302000F041FB40F20241312000F03CFBBA
:103DA00040F20731322000F037FB4FF441713320ED
:103DB00000F032FB0421342000F02EFB40F20141E0
:103DC000352000F029FB3946362000F025FB40F273
:103DD0000531372000F020FB4FF4C263194638202C
:103DE00000F01AFB1946392000F016FB314601207D
:103DF00000F012FB5946022000F00EFB41F23001A8
:103E0000032000F009FB40F60801082000F004FB45
:103E100008210A2000F000FB4FF41C51602000F044
:103E2000FBFA0121612000F0F7FA4FF49F71902016
:103E300000F0F2FA3146922000F0EEFA314693207B
:103E400000F0EAFA4FF44051A02000F0E5FA10210A
:103E5000A32000F0E1FA0121072000F0DDFA212182
:103E6000072000F0D9FA2321072000F0D5FA3321EA
:103E7000072000F0D1FA40F233119DE6E2202080C5
:103E80001D2028800220288004202880642001F042
:103E9000DDFAE0202080012028800A2001F0BCFA11
:103EA000E0202080032028800C2001F0B5FA0120BA
:103EB00020800A2001F0B0FAE62020802F20288000
:103EC000FF2028802880B02020802020288000200B
:103ED00028800320288040F21F302880012028807D
:103EE00040F2DF10288000202880B42020800420A9
:103EF000288040F21F402880002028802E20288023
:103F000000202880288028802880B6202080022059
:103F100028804FF4037028800020288017202880F4
:103F200015202880002028802880F0202080032071
:103F3000288029202080D020208000202880BE20BA
:103F4000208005202880FE20288001202880002055
:103F5000288028802880B820208003202880012005
:103F60002880BA20208001202880642000F024F8D6
:103F70000020FCF77DFF0449C1F880814846FCF72A
:103F800041FF1FB0BDE8F08F00802142034808B513
:103F90000088ADF80000BDF8000008BD0008006C06
:103FA000044910B50880052001F050FABDE8104022
:103FB000FFF7ECBFFE07006C0C4A10B5BE21118064
:103FC000941C05212180FCF71FF94FF06632084B45
:103FD000FCF7A8F8FCF725F9208001202080FF20BD
:103FE000208000202080208010BD0000FE07006C93
:103FF00066660440F0B5674E00233146B279898881
:1040000046F6040741F66314012A01D02AB11DE0E7
:10401000B9421BD0A14202D118E0A14216D1082812
:1040200014D2DFE800F00406080A0C0E1012062075
:104030000CE007200AE0042008E0052006E001204B
:1040400004E0002002E0032000E00220A1F5134C70
:1040500045F2103245F21055BCF1410C07D0B9427F
:1040600005D0914203D0A94201D0A14275D10828C0
:1040700012D2DFE800F0110406080A0C0E108023AB
:104080000AE0402308E0C02306E0202304E0602388
:1040900002E0A02300E0E023A94202D14FF45850EF
:1040A00000E03620914205D0A94203D0A14201D0C0
:1040B00043F00803B94201D143F00203194600F06E
:1040C000ABF9B288A2420AD098063088718802D52E
:1040D000884202D303E0884201D9318070802E48A3
:1040E000811CAA427289028021D100230B80531CBB
:1040F000038000230B80931C038033885B1E1C0A03
:104100000C80D21C0280DAB20A80B28902800023BD
:104110000B80531C038000230B80931C0380738847
:104120005B1E1C0A0C80D21C0280D8B212E0002256
:104130000A800A803288521E130A0B80D2B20A808B
:10414000B28902800020088008807088401E020A20
:104150000A80C0B20880F0BDFFE7082812D2DFE86D
:1041600000F0040608110A0C0E1030230AE0102398
:1041700008E0202306E0382304E0282302E0182387
:1041800000E00823BDE8F040032043F4805100F034
:1041900043B900002C000020FE07006C2DE9F04F11
:1041A0004E4F0B463A46BD880C0ADFF834B1918970
:1041B0005289A5F513464FEA102C0BF1020A413E35
:1041C0001DD0A5F5A646103E19D03E46BE4696F82F
:1041D00006903688A5F5D047A6EB0008A8F101089F
:1041E000043F17D0A5F5C857633F28D0A5F5AA47C7
:1041F0007646103F51D0B9F1010F63D064E0ABF8BF
:1042000000205246AAF800C0C0B2AAF80000ABF8DD
:1042100000100FE0B9F1010F01D11FFA88F0ABF8DF
:104220000020050A5246AAF80050C0B2AAF80000C1
:10423000ABF800101480D8B21080BDE8F08FB9F14F
:10424000000F1BD0ABF800205246AAF800C0C0B245
:10425000AAF80000761E300AAAF80000F0B210801A
:10426000ABF8001011461480D8B21080BEF80200DE
:10427000401E020A0A80C0B20880DEE71FFA88F0FA
:10428000ABF8002000265246AAF80060AAF80060A9
:10429000060AAAF80060C0B2E1E7ABF80020AAF86D
:1042A00000C0521CABF80020C0B2AAF80000ABF866
:1042B0000010AAF80040491CABF80010D8B2AAF8C8
:1042C0000000BAE71FFA88F00146104600F0A4F893
:1042D000B089BDE8F04F194600F09EB82C000020D0
:1042E000FE07006C2DE9F84F82461F460C468B46B0
:1042F000580700D0012000EBD70079084843203A46
:10430000C0B202F0FF090026009041E00C2F10D04F
:10431000102F12D0182F3ED1204909EBC90001EB14
:1043200080004FF00008855D28060AD51C480288E9
:104330000BE009EB49001B49F1E71B4901EB0910B0
:10434000EFE70A9828B91648428821465046FCF7FC
:1043500029FE6806050E1548641CA4B24088A042D8
:1043600019D9A4EB0B00B84209D10AF101001FFAD8
:1043700080FA0E485C46018851450CD906E008F1E8
:10438000010000F0FF08B8F1080FCDD3761CF6B29B
:1043900000988642BAD3BDE8F88F0000806100081B
:1043A000240000201C570008905B00082C0000200F
:1043B0002DE9F84F044600F0FF0810190D46DDE91D
:1043C0000A761FFA80FA58191FFA80F94FF0000B8D
:1043D00011E0544502D3E819444685B24D450FD249
:1043E0003B4629462046CDF800B0FFF77BFF04EBA3
:1043F000570084B2761C3278A2F120005E28E8D9FA
:10440000BDE8F88F02480349008908807047000022
:104410002C000020FE07006C024A1080901C0180D6
:1044200070470000FE07006CFEE770471FB50FA045
:104430000522D0E90010CDE900106946302000F0D7
:10444000D5FD052202A9102000F0AAFD002002A936
:104450000A5CC22A03D1401CC0B20528F8D3052843
:1044600002D0002004B010BD0120FBE7C2C2C2C2CE
:10447000C200000010B5184C08212046FCF740FC93
:1044800005221649302000F0B1FD14490522491DCE
:104490002A2000F0ABFD0121212000F0CDFD0121FB
:1044A000222000F0C9FD1A21242000F0C5FD28219A
:1044B000252000F0C1FD0F21262000F0BDFD0E21BA
:1044C000202000F0B9FD08212046FCF759FCBDE88A
:1044D00010400A2000F0BABF000801401800002078
:1044E00070B50446C0780F2528B1012803D0752186
:1044F0001FA000F055FF6078102803D376211CA080
:1045000000F04EFFA078102803D3772118A000F008
:1045100047FFE0780122F8B118480068617800F49C
:10452000E060C0F5E060000AC0F10403C540A07877
:104530009940284008432178000101F1E02181F8E9
:104540000004207800F01F018A404009800000F13B
:10455000E020C0F8002170BD207800F01F018A40E3
:104560004009800000F1E020C0F8802170BD00000B
:104570007372635C6D6973632E6300000CED00E081
:1045800010B50446B0F5E06F0FD0B4F5C06F0CD095
:10459000B4F5A06F09D0B4F5806F06D0B4F5407FB4
:1045A00003D0632103A000F0FBFE05480443054847
:1045B000046010BD7372635C6D6973632E630000E9
:1045C0000000FA050CED00E0002130B1012806D012
:1045D000032806D0042807D105E0B02104E0982183
:1045E00002E0182100E03021552000F0EBBA70B550
:1045F000802622255E2430B1012808D003280AD065
:1046000004280FD10BE0402611252F240AE066264E
:104610001B254B2406E099262825712402E0C0269C
:1046200033258D2431464F2000F0CCFA31465020FE
:1046300000F0C8FA0021512000F0C4FA29465220A7
:1046400000F0C0FA2146532000F0BCFA3146542055
:1046500000F0B8FABDE870409E21582000F0B2BAD0
:10466000402130B1012806D0032806D0042807D104
:1046700005E0302104E0382102E0502100E0602113
:10468000562000F09FBA0000F8B50024012140F246
:104690003D1000F037F94FF48075ADF80050482612
:1046A0008DF803600320354F8DF8020069463846C7
:1046B000FCF782F929463846FCF762FB1820ADF872
:1046C00000002F4F10258DF8035069463846FCF73F
:1046D00073F918213846FCF753FBFF20ADF80000B2
:1046E0008DF8036069462748FCF766F94020ADF86D
:1046F0000000254E8DF8035069463046FCF75CF902
:1047000040213046FCF73CFB4FF44046ADF80060DA
:104710008DF803501D4D69462846FCF74DF931468A
:104720002846FCF72DFB01211948FCF7EFF900F0B2
:1047300013F98021122000F045FA08B10120F8BDDC
:10474000322000F069FE0B2000F098F9732804D1A4
:104750000A2000F093F9762801D00220F8BD0D4D13
:1047600005EB4400417815F8140000F02BFA641CA6
:10477000A4B2A82CF4D30020F8BD0000000801402A
:10478000000C0140001001400014014000200140D5
:1047900000023000DC6E000870B50025E7212C46D1
:1047A000012806D0022808D003280AD004280FD1F7
:1047B0000BE0E5215A255C240AE0E5215825602418
:1047C00006E0E52184254C2402E0E52196254024DD
:1047D000132000F0F7F92946012000F0F3F92146F3
:1047E000BDE87040022000F0EDB970B50421C0248E
:1047F0008025072816D2DFE800F0150406090B0E05
:104800001200242100E0142180240BE0142109E08F
:104810001421402405E014218024C02502E0142145
:10482000A02440253A2000F0CDF92146682000F070
:10483000C9F92946BDE87040672000F0C3B92DE9E9
:10484000F041054600EB420086B201EB430084B222
:104850000F46B4F5447F02D9A4F54474A4B20320F2
:1048600000F00CF906F00302294600F0F00062F3B4
:104870009F010143032000F0A5F9C5F3870119202A
:1048800000F0A0F9C6F387011A2000F09BF932204E
:1048900000F0F4F8C7F3C701172000F093F9C4F350
:1048A000C701BDE8F041182000F08CB97047000046
:1048B00070B5044640F257500D4634EA000000D16E
:1048C00024B940F22B4109A000F06AFD0C4E4DB115
:1048D000012D04D040F22C4104A000F061FD70696C
:1048E000204301E07069A043706170BD7372635C26
:1048F00073746D3332663130785F7263632E630098
:104900000010024070B504460C480D46044200D128
:1049100024B940F24A410AA000F042FD0D4E4DB1CB
:10492000012D04D040F24B4105A000F039FDB069E3
:10493000204301E0B069A043B06170BD0200C0FF38
:104940007372635C73746D3332663130785F726397
:10495000632E63000010024038B501214FF49070BF
:10496000FFF7D0FF4FF40055ADF8005048208DF808
:1049700003000320114C8DF8020069462046FCF725
:104980001BF829462046FCF7FBF90820ADF800008B
:1049900010200B4D8DF8030069462846FCF70CF8F3
:1049A00008212846FCF7ECF9606820F4700060608C
:1049B000606840F44010606038BD00000020014095
:1049C0000014014070B5322000F040FD0C4D012074
:1049D000C5F8B4010B4EC6F88C01322005F5DA7526
:1049E00006F5C67600F032FD00243460322000F077
:1049F0002DFD2C60BDE87040322000F027BD000086
:104A000000002442008022422DE9F047184F002484
:104A1000786820F470007860786840F4000078606E
:104A2000DFF85090144E08254FF00108A2463220BE
:104A300000F00CFDC6F88C816006040ED9F8340134
:104A400008B1641CE4B2322000F000FDC6F88CA16D
:104A50006D1E15F0FF05EAD1786820F470007860CB
:104A6000786840F4401078602046BDE8F087000088
:104A700000200140000024420080224210B504467C
:104A800000F022F8422000F055F8642000F0DEFC2F
:104A9000204600F04FF8642000F0D8FC00F02EF81B
:104AA000642000F0D3FC00F00FF8432000F042F83F
:104AB000642000F0CBFCFFF7A7FF0446FFF782FF5E
:104AC00000F01CF8204610BD70B50A4E0120C6F853
:104AD000B401094DC5F88C01322005F5C67506F5FF
:104AE000DA7600F0B3FC00243460322000F0AEFC33
:104AF0002C6070BD000024420080224270B50B4C37
:104B00000020C4F8B401322004F5DA7400F09EFCF1
:104B100007480125C0F88C51322000F097FC256031
:104B2000BDE87040322000F091BC0000000024423B
:104B3000008022422DE9F04700241F4E1F4F0546FA
:104B4000A0464FF00109280601D5484600E040463E
:104B5000C6F8B4016806050E322000F077FCC7F8ED
:104B60008C91322000F072FCC7F88C81641CE4B296
:104B7000082CE8D3124C606820F470006060606814
:104B800040F400006060322000F060FCC7F88C91B7
:104B9000322000F05BFCD6F8340100B10120C7F8E8
:104BA0008C81616821F470016160616841F4401199
:104BB0006160BDE8F08700000000244200802242CE
:104BC0000020014070B50D4606460024FFF77CFF2B
:104BD0004220FFF7AFFF00B10124642000F036FC53
:104BE0003046FFF7A7FF00B10124642000F02EFC3F
:104BF0002846FFF79FFF00B10124FFF77FFF204603
:104C000070BD000070B504460F480D4684420AD0BE
:104C10000E48844207D00E48844204D04FF4D77126
:104C20000CA000F0BDFB55B1012D04D040F2AF1136
:104C300008A000F0B5FB208840F0400002E020888A
:104C400020F04000208070BD00300140003800405E
:104C5000003C00407372635C73746D3332663130B4
:104C6000785F7370692E630070B50546154800269D
:104C70000C4685420AD01448854207D01348854225
:104C800004D040F2023112A000F08AFB802C12D036
:104C9000402C10D0202C0ED0102C0CD0082C0AD078
:104CA000042C08D0022C06D0012C04D040F2033191
:104CB00007A000F075FB2889204200D0012630466D
:104CC00070BD00000030014000380040003C004052
:104CD0007372635C73746D3332663130785F7370F6
:104CE000692E630010B50446074884420AD007487D
:104CF000844207D00648844204D040F2362105A001
:104D000000F04EFBA08910BD00300140003800408B
:104D1000003C00407372635C73746D3332663130F3
:104D2000785F7370692E630070B5044608480D46BD
:104D300084420AD00748844207D00748844204D0FE
:104D400040F2262105A000F02BFBA58170BD0000DC
:104D50000030014000380040003C00407372635C4A
:104D600073746D3332663130785F7370692E63000F
:104D700070B5054642480C46854209D041488542F7
:104D800006D04148854203D0A32140A000F008FB93
:104D9000208860B1B0F5806F09D0B0F5004F06D023
:104DA000B0F5404F03D0A62138A000F0F9FA608892
:104DB000B0F5827F04D018B1A72134A000F0F0FA3A
:104DC000A088B0F5006F04D018B1A8212FA000F082
:104DD000E7FAE08828B1022803D0A9212BA000F02F
:104DE000DFFA208928B1012803D0AA2127A000F0EA
:104DF000D7FA6089B0F5007F04D018B1AB2123A0A9
:104E000000F0CEFAA08988B108280FD010280DD064
:104E100018280BD0202809D0282807D0302805D002
:104E2000382803D0AC2119A000F0BAFAE08928B1E3
:104E3000802803D0AD2115A000F0B2FA208A18B95D
:104E4000AE2112A000F0ACFA288821886288E3889D
:104E50001143A28800F441501A431143228911439F
:104E600062891143A2891143E289114301432980D8
:104E7000A88B20F40060A883208A288270BD0000DF
:104E80000030014000380040003C00407372635C19
:104E900073746D3332663130785F7370692E6300DE
:104EA00070B586B001211520FFF72CFD0121080304
:104EB000FFF728FDE020ADF800000124284E8DF812
:104EC000024018258DF8035069463046FBF774FD03
:104ED000ADF800508DF8024010258DF8035069465A
:104EE0003046FBF769FDA003ADF800008DF80240E5
:104EF0008DF8035069461B48FBF75EFDADF8004096
:104F00008DF8024048208DF8030069463046FBF7D3
:104F100053FD10213046FBF733FF0020ADF80400AD
:104F20004FF48271ADF80610ADF80C00ADF8080032
:104F30006102ADF81050ADF80A00ADF8120007207C
:104F4000094CADF80E10ADF8140001A92046FFF78A
:104F50000FFF01212046FFF755FE06B070BD00008F
:104F600000080140001001400030014070B50B4CBA
:104F7000054602212046FFF777FE0028F9D0294692
:104F80002046FFF7D1FE01212046FFF76DFE0028E5
:104F9000F9D02046FFF7A6FEC0B270BD0030014038
:104FA0002DE9F041104F0E460446154608213846BB
:104FB000FBF7A6FE10213846FBF7A2FE2046FFF7BE
:104FC000D5FF8046002405E0FF20FFF7CFFF3055D6
:104FD000641CE4B2AC42F7D310213846FBF7D0FE94
:104FE0004046BDE8F0810000000801402DE9F04195
:104FF000104F0D460446164608213846FBF780FE42
:1050000010213846FBF77CFE2046FFF7AFFF8046B5
:10501000002405E015F8010BFFF7A8FF641CE4B2BB
:10502000B442F7D310213846FBF7AAFE4046BDE84C
:10503000F08100000008014070B50C4C0E4605469A
:1050400008212046FBF75CFE10212046FBF758FEA6
:105050002846FFF78BFF05463046FFF787FF1021F4
:105060002046FBF78DFE284670BD00000008014079
:10507000704700000CB5002226480092019201689A
:1050800041F4803101604FF4A063016801F4003104
:1050900001910099491C0091019911B90099994217
:1050A000F3D10168890333D5012101911A490A68B6
:1050B00042F010020A600A6822F003020A600A68DD
:1050C00042F002020A604168416041684160416803
:1050D00041F480614160416821F47C114160416884
:1050E00041F4E8114160016841F08071016001689C
:1050F0008901FCD5416821F003014160416841F01C
:10510000020141604168C1F381010229FAD10CBD5D
:1051100001920CBD001002400020024010B54FF07B
:10512000E02404280AD0401D03D0CA2105A000F0C5
:1051300037F9206920F00400206110BD206940F09B
:105140000400F9E77372635C6D6973632E6300009A
:10515000704700000F4810B5016841F0010101607F
:1051600041680D4A1140416001680C4A11400160DC
:10517000016821F480210160416821F4FE01416051
:105180004FF41F018160FFF775FF05494FF0006084
:10519000086010BD001002400000FFF8FFFFF6FE9F
:1051A00008ED00E0FEE700000FB4054B10B503A9C1
:1051B000044A029800F018F810BC5DF814FB0000D7
:1051C000815400082800002002E008C8121F08C10E
:1051D000002AFAD170477047002001E001C1121F78
:1051E000002AFBD1704700002DE9FF4F8BB09A4693
:1051F0000F460546002606E025280BD052460D999D
:1052000090476D1C761C28780028F5D10FB03046E9
:10521000BDE8F08F0024A0460122604900E004436D
:1052200015F8013F203B02FA03F00842F7D1287835
:105230002E2817D115F8010F44F004042A280ED0A7
:105240006FF02F022878A0F1300109290AD808EB65
:10525000880102EB410100EB01086D1CF2E757F8F1
:10526000048B6D1C287869283ED006DC0028CDD040
:1052700063280BD0642804D136E0732810D0752839
:105280004BD052460D999047761C85E017F8040BD9
:105290008DF8000000208DF80100E946012003E0B0
:1052A00057F8049B4FF0FF3061074FF0000401D422
:1052B0000AE0641C44450DDA8442FADB19F8041054
:1052C0000029F6D106E0641C8442FCDB19F80410C6
:1052D0000029F8D1264404E019F8010B52460D9933
:1052E0009047641EF8D257E001CF4FF00A0B002818
:1052F00002DA40422D2102E0210504D52B218DF850
:105300002410012103E0E10705D02021F7E70DF18A
:10531000200908910CE00021F9E701CF4FF00A0BBA
:10532000F9E75946FAF796FF01F1300209F8012D25
:105330000028F6D1ADEB090000F1200B600701D485
:105340004FF00108D84502DDA8EB0B0000E000207B
:105350008046002406E009A85246005D0D9990475A
:10536000641C761C08988442F5DB04E03020524629
:105370000D999047761CB8F10001A8F10108F5DC01
:1053800005E019F8010B52460D999047761CBBF1C8
:105390000001ABF1010BF4DC6D1C34E709280100BE
:1053A0000A46014601A0FFF7FFFEFEE757726F6E47
:1053B0006720706172616D65746572732076616CCF
:1053C00075653A2066696C65202573206F6E206CC8
:1053D000696E652025640D0A0000000010B56FF0AD
:1053E0000400FFF79BFE094809490068B0FBF1F093
:1053F0000849C0B200EB40020870C2EBC0104FF683
:10540000FF7202EAC000488010BD000000000020CA
:1054100000127A00140000200B49498848434FF0DD
:10542000E021486100238B61086940F001000861B8
:105430000869C20701D0C003FAD5086920F001004D
:1054400008618B6170470000140000200B49097847
:1054500048434FF0E021486100238B61086940F028
:10546000010008610869C20701D0C003FAD50869C4
:1054700020F0010008618B617047000014000020DB
:1054800038B504468DF8000069460320ABBE2046BF
:1054900038BD00001CB54FF002084FF00009474628
:1054A0004646FFF79BFF4FF4A060FFF769F8FBF754
:1054B0004FFEFFF7F5FC64494FF478401024088054
:1054C00062A0CDE900402346C82232211E20FEF70B
:1054D0006FFF62A0CDE900401023C82246211E20A4
:1054E000FEF766FF60A0CDE900401023C8225A21D4
:1054F0001E20FEF75DFF60A0CDE900401023C8220A
:105500006E211E20FEF754FF5EA0CDE9004010235F
:10551000C82282211E20FEF74BFF5EA0CDE900408D
:105520001023C82296211E20FEF742FF5DA0CDE980
:1055300000401023C822AA211E20FEF739FF5DA0DB
:10554000CDE900401023C822BE211E20FEF730FF07
:105550005CA0CDE900401023C822D2211E20FEF716
:1055600027FF5CA0CDE900401023C822E6211E20C1
:10557000FEF71EFF57A0CDE900401023C822FA21F4
:105580001E20FEF715FF4FF6FF7515E054A0CDE97C
:1055900000401023C822FA211E20FEF709FFC82070
:1055A000FFF73AFFF623EF22E6211E200095FBF7D6
:1055B00089FDC820FFF730FFFFF766F80028E5D126
:1055C0004BA0CDE900401023C822E6211E20FEF7A3
:1055D000EFFE40F2DC50FFF71FFF4846FFF7DCF814
:1055E0004046FFF704F83846FEF7EEFF3046FFF777
:1055F00037F80020FFF7F9F8FAF7D3FE4FF4A0735D
:10560000F022B0210A20FFF71AF93D490020C1F825
:10561000BC01FBF7F7FB0BE03AA0CDE900401023FB
:10562000C822FA211E20FEF7C3FEC820FFF7F4FEB1
:10563000FEF7FCFE0128EFD1FEF71CFF364C0821D7
:105640002046FBF75DFBFAE7240000205761725308
:105650006869702053544D33320000004F5637367E
:10566000373020544553540041544F4D40414C492C
:10567000454E54454B000000323031352F312F312B
:10568000380000004B4559303A4C69676874204D2A
:105690006F6465004B4559313A536174757261749A
:1056A000696F6E004B4559323A4272696768746E91
:1056B000657373004B45595F55503A436F6E747272
:1056C00061737400545041443A456666656374736F
:1056D000000000004E524620496E69742E2E2E00A6
:1056E0004F5637363730204572726F7221210000D5
:1056F0004F563736373020496E6974204F4B0000C3
:10570000000024424E52465F436865636B20457239
:10571000726F7221210000000008014000000000AB
:105720000000000000000000000000003F400000FA
:105730000000000000003000400030004000000089
:1057400009000BC03D000BC03D00090018C02440FB
:105750007FE0224031800000180024C01B000D8033
:105760003240018003801C4027401C8007400040DD
:1057700010006000000000000000000000000000B9
:1057800000001F80204040200000402020401F805B
:1057900000000000090006001F800600090000004C
:1057A000040004003F8004000400000000100060BA
:1057B00000000000000000000400040004000400D9
:1057C0000400000000000040000000000000000095
:1057D000002001C006003800400000001F8020406B
:1057E000204020401F800000000010403FC00040CB
:1057F0000000000018C02140224024401840000052
:1058000010802040244024401B80000002000D0036
:1058100011003FC0014000003C802440244024404F
:10582000238000001F802440244034400380000077
:105830003000200027C03800200000001B802440DA
:10584000244024401B8000001C0022C02240224033
:105850001F80000000000000084000000000000061
:1058600000000000046000000000000000000400D0
:105870000A001100208040400900090009000900C9
:105880000900000000004040208011000A000400D0
:105890001800200023402400180000001F80204032
:1058A000274029401F400000004007C039000F007A
:1058B00001C0004020403FC0244024401B80000025
:1058C0001F802040204020403080000020403FC00A
:1058D000204020401F80000020403FC024402E4038
:1058E00030C0000020403FC024402E0030000000A7
:1058F0000F001080204022403380020020403FC033
:10590000040004003FC02040204020403FC0204011
:10591000204000000060202020203FC02000200008
:1059200020403FC024400B0030C0204020403FC0FA
:1059300020400040004000C03FC03C0003C03C008D
:105940003FC0000020403FC00C4023003FC020006B
:105950001F802040204020401F80000020403FC08A
:1059600024402400180000001F802140214020E036
:105970001FA0000020403FC02440260019C0004066
:1059800018C02440244022403180000030002040D4
:105990003FC020403000000020003F800040004019
:1059A0003F80200020003E0001C00700380020009A
:1059B000380007C03C0007C038000000204039C054
:1059C000060039C0204000002000384007C03840A1
:1059D00020000000304021C02640384020C0000098
:1059E000000000007FE04020402000000000700028
:1059F0000C000380004000000000402040207FE0B9
:105A00000000000000002000400020000000000016
:105A10000010001000100010001000100000000026
:105A2000400000000000000000000280054005402A
:105A300003C0004020003FC0044004400380000039
:105A40000000038004400440064000000000038082
:105A5000044024403FC00040000003800540054052
:105A600003400000000004401FC0244024402000E8
:105A7000000002E0055005500650042020403FC0C1
:105A80000440040003C000400000044027C0004060
:105A90000000000000100010041027E000000000CB
:105AA00020403FC00140070004C004402040204087
:105AB0003FC000400040000007C0040007C00400D1
:105AC00003C00000044007C00440040003C00040BD
:105AD000000003800440044003800000041007F02D
